:020000040800F2
:10000000601000202902000887200008B71B0008A4
:10001000852000080B0500088D2500080000000061
:100020000000000000000000000000008B2000081D
:100030003905000800000000892000088D20000814
:10004000430200084302000843020008430200087C
:10005000430200084302000843020008430200086C
:10006000430200084302000843020008430200085C
:10007000430200084302000843020008430200084C
:10008000430200084302000843020008430200083C
:10009000430200084302000843020008430200082C
:1000A000430200084302000843020008430200081C
:1000B000430200084302000843020008430200080C
:1000C00043020008430200084302000843020008FC
:1000D00043020008430200084302000843020008EC
:1000E00043020008430200084302000843020008DC
:1000F00043020008430200084302000843020008CC
:1001000043020008430200084302000843020008BB
:1001100043020008430200084302000843020008AB
:10012000430200084302000843020008430200089B
:10013000430200084302000843020008430200088B
:10014000430200084302000843020008430200087B
:10015000430200084302000843020008430200086B
:10016000430200084302000843020008430200085B
:100170004302000843020008430200080000000098
:10018000430200084302000800F002F800F03CF8C7
:100190000AA090E8000C82448344AAF10107DA45E2
:1001A00001D100F031F8AFF2090EBAE80F0013F0F8
:1001B000010F18BFFB1A43F001031847A03E0000CF
:1001C000C03E0000103A24BF78C878C1FAD8520760
:1001D00024BF30C830C144BF04680C6070470000C1
:1001E0000023002400250026103A28BF78C1FBD840
:1001F000520728BF30C148BF0B6070471FB503F0DE
:1002000017FF1FBD10B510BD00F046F91146FFF7EE
:10021000F5FF02F067FF00F064F903B4FFF7F2FFA7
:1002200003BC00F06BF9000009488047094800470B
:10023000FEE7FEE7FEE7FEE7FEE7FEE7FEE7FEE796
:10024000FEE7FEE704480549054A064B70470000F3
:100250002521000889010008600A002060100020A4
:10026000600C0020600C002053EA020C00F0698052
:100270002DE9F04B4FF00006002B1FBFB3FA83F5BA
:1002800003FA05F424FA05F65E4012BF1643B2FAEB
:1002900082F502FA05F4C5F120051EBF22FA05FC1D
:1002A00044EA0C04203556EA044C4FEA144418BFC3
:1002B000641C4FF000084FF00009904271EB030CF2
:1002C00039D3002919BFB1FA81F701FA07F6B0FA5C
:1002D00080F700FA07F6C7F120071EBF20FA07FCD7
:1002E00046EA0C062037B6FBF4FCA7EB0507103FE7
:1002F00007F01F0BCBF120060CFA0BFB2CFA06F6CD
:1003000044BFB3460026202FA4BF5E464FF0000B2B
:100310005BEA060C08BF4FF0010B19EB0B09ABFBB6
:10032000027C48EB0608C01B06FB02CC0BFB03CC8F
:1003300071EB0C01C1E70B46024641464846BDE859
:10034000F08B13B54FF000004FF00001AFF30080C9
:10035000BDE81C407047032A40F2308010F0030CC7
:1003600000F0158011F8013BBCF1020F624498BF08
:1003700011F801CB00F8013B38BF11F8013BA2F1A5
:10038000040298BF00F801CB38BF00F8013B11F020
:10039000030300F02580083AC0F0088051F8043BC0
:1003A000083A51F804CBA0E80810F5E7121D5CBF2D
:1003B00051F8043B40F8043BAFF30080D20724BF60
:1003C00011F8013B11F801CB48BF11F8012B24BFF4
:1003D00000F8013B00F801CB48BF00F8012B704743
:1003E00010B5203AC0F00B80B1E81850203AA0E8D0
:1003F0001850B1E81850A0E81850BFF4F5AF5FEA04
:10040000027C24BFB1E81850A0E8185044BF18C9B6
:1004100018C0BDE810405FEA827C24BF51F8043B5D
:1004200040F8043B08BF7047D20728BF31F8023BB1
:1004300048BF11F8012B28BF20F8023B48BF00F845
:10044000012B70474FF0000200B5134694469646C4
:10045000203922BFA0E80C50A0E80C50B1F12001D7
:10046000BFF4F7AF090728BFA0E80C5048BF0CC085
:100470005DF804EB890028BF40F8042B08BF7047E3
:1004800048BF20F8022B11F0804F18BF00F8012B55
:100490007047704770477047754600F02BF8AE46BE
:1004A00005006946534620F00700854618B020B580
:1004B000FFF7C8FEBDE820404FF000064FF00007F0
:1004C0004FF000084FF0000B21F00701AC46ACE8FC
:1004D000C009ACE8C009ACE8C009ACE8C0098D4669
:1004E000704710B50446AFF300802046BDE81040C9
:1004F000FFF793BE00487047000A0020014918200A
:10050000ABBEFEE7260002007047FEE731B5084C9F
:10051000656800F0B1FD0749B0FBF1F00099414377
:10052000081A00916168491B8142FBD338BD000065
:10053000001000E040420F007047000070B5044614
:1005400000F018F90546601C02D004480078044405
:1005500000F010F9401BA042FAD370BD2800002023
:100560002DE9F84FDFF8BCA10022012503264FF04A
:100570000F090AF1040BAAF1040E00BF0B6805FA7B
:1005800002F42340A34270D10F7907F00307012F33
:1005900001D0022F16D187684FEA420806FA08FCFC
:1005A00027EA0C07D1F80CC00CFA08FC4CEA070C3F
:1005B000C0F808C04768A7430C79C4F300149440FE
:1005C0003C4344600C79E443A4070AD0C4684FEA72
:1005D000420C06FA0CF7BC438F6807FA0CF7274366
:1005E000C7600C7904F00304022C12D1D40800EB8C
:1005F000840CDCF820405707FF0E09FA07F824EABC
:100600000804D1F8108008FA07F848EA0408CCF882
:10061000208004684FEA420C06FA0CF7BC430F79BD
:1006200007F0030707FA0CF7274307604C6814F438
:10063000403F70D03C4C276847F4804727602468CF
:1006400022F0030704F480440094384C07EB040CB8
:10065000DCF8084897074FEA177809FA08F7BC430F
:10066000334FB84202D1002724E054E0314FB84262
:1006700001D101271EE0304FB84201D1022719E015
:100680002E4FB84201D1032714E02D4FB84201D1BB
:1006900004270FE02B4FB84201D105270AE02A4F6B
:1006A000B84201D1062705E0284FB84201D10727FB
:1006B00000E0082707FA08F72743CCF80878DAF8AB
:1006C00000405746D1F804C09C435FEACC2C00D5CB
:1006D0001C433C60DBF800405F46D1F804C09C43FB
:1006E0005FEA8C2C00D51C433C60DEF80040774666
:1006F000D1F804C09C435FEA8C3C00D51C433C60AD
:10070000084F083F3C68D1F804C09C435FEACC3CEA
:1007100000D51C433C60521C102AFFF42FAFBDE8EB
:10072000F88F0000083C014044380240003001408E
:10073000000002400004024000080240000C024099
:10074000001002400014024000180240001C024049
:100750000069084000D001207047426921EA020385
:100760000A4043EA0241816170470AB181617047E2
:100770000904FBE70148806870470000280000205A
:1007800070B5040025D094F83D00002520B984F808
:100790003C50204600F0F4FA242084F83D00206804
:1007A000016821F0010101602068016841F4004105
:1007B00001602068016821F40041016000F062FCE2
:1007C0004D4A6168914201D84C4900E04C49884249
:1007D00001D2012070BD4B492368B0FBF1F15E6886
:1007E00026F03F060E435E606368934206D94FF4DD
:1007F000967359434FF47A73B1FBF3F12368491CA4
:100800001E6A26F03F06314319626168914210D892
:100810004900401EB0FBF1F2521CC2F30B02042A45
:1008200001D2042022E0B0FBF1F0401CC0F30B0029
:100830001CE0A268F2B301EBC10303EB0116431EF7
:10084000B3FBF6F35B1C43F480431B0549D092B322
:1008500001EBC10202EB0111401EB0FBF1F0401CA4
:10086000C0F30B0040F4804040F400402168CA69A6
:100870004CF6FF739A431043C861D4E90710014353
:100880002068026822F0C00211430160D4E903012C
:1008900001432068826848F2FF339A431143816024
:1008A000D4E9050108432168CA6822F0FF02104319
:1008B000C86001E00EE016E02068016841F0010127
:1008C00001602564202084F83D00256384F83E50B3
:1008D000002070BD01EB4106431EB3FBF6F35B1C29
:1008E000B3E70120C2E701EB4101401EB0FBF1F08C
:1008F000401CC0F30B00B7E7A086010080841E00F7
:1009000000093D0040420F002DE9FF4F81B08946AC
:100910000446FFF72FFF054694F83D004FF000080E
:1009200020287DD11923012250492046009501F04D
:1009300045FA002874D194F83C00012870D00120B9
:1009400084F83C0020680168C90703D1016841F0C0
:10095000010101602068016821F400610160242028
:1009600084F83D00002626644148E0624FF0011BF8
:1009700020272068016841F4807101600095002201
:1009800059462046049B01F019FA50B120680068CE
:10099000C00502D54FF400702064032005B0BDE807
:1009A000F08F216809F0FE000861FFF7E3FE21687F
:1009B000054648694969C0F34000C1F380214FF002
:1009C000A00A0FE0FFF7D6FE411B0498814200D831
:1009D00008B984F83DA0216848694969C0F340001E
:1009E000C1F3802194F83D20A02A02D008B9002943
:1009F000E8D084F83D7020684169C943890716D45E
:100A0000016841F40071016020684169806919231F
:100A1000012216492046009501F0D0F9B8B900E04E
:100A200021E084F83D7084F83C600020B6E701685E
:100A300041F40071016021686FF4806048611923FE
:100A400001220A492046009501F0B8F908B10120B9
:100A5000A4E7039808F1010880458AD384F83D7023
:100A600084F83C60F3E7022098E7000002001000E1
:100A70000000FFFF2DE9F84F1F4690468A460446C6
:100A8000DDF82890FFF776FE054694F83D00202813
:100A900075D1192301226C492046009501F08EF989
:100AA0000028F5D194F83C00012868D0012084F892
:100AB0003C0020680168C90703D1016841F00101C9
:100AC00001602068016821F400610160222084F83F
:100AD0003D00102084F83E0000262664C4F82480DF
:100AE0006785608D20855948E0622B464A4651460D
:100AF000204601F079F8002878D1208D544F68B154
:100B0000012814D002282068016816D041F48061C1
:100B10000160206841698069009087E02068416930
:100B200081690091016841F4007101607EE02068F4
:100B3000016821F480610160F0E721F480610160C7
:100B40002068016841F40061E2E7032848D80128E1
:100B50000AD0022814D04B46002239462046009580
:100B600001F02CF9D8BB27E02A464946204601F07F
:100B7000A4F9A0BB20680069616A08704DE061E0DB
:100B80004B46002239462046009501F017F930BB4C
:100B90002068016841F40071016020680069616AA1
:100BA0000870606A401C6062218D491E2185618D3C
:100BB000491E618521682EE02068016821F480616A
:100BC000016020680069616A0870606A401C6062A8
:100BD000208D401E2085608D401E6085D0E705E099
:100BE0002A464946204601F068F910B10120BDE8C7
:100BF000F88F20680069616A0870606A401C606252
:100C0000218D491E2185618D491E618521684A69B2
:100C1000D24352070AD409690170606A401C6062BD
:100C2000208D401E2085608D401E6085208D00280F
:100C30008BD1202084F83D0084F83E6084F83C602D
:100C40000020D4E70220D2E7020010000000FFFFDE
:100C5000040001002DE9F84F1F4690468A460446DD
:100C6000DDF82890FFF786FD054694F83D00202822
:100C70007FD11923012240492046009501F09EF8BA
:100C8000002876D194F83C00012872D0012084F825
:100C90003C0020680168C90703D1016841F00101E7
:100CA00001602068016821F400610160212084F85E
:100CB0003D00102084F83E0000262664C4F82480FD
:100CC0006785608D20852D48E0622B464A46514657
:100CD000204600F0FFFF90B92068416980690090CC
:100CE00036E02A464946204601F01AF950B1206CF8
:100CF000042804D12068016841F4007101600120DA
:100D0000BDE8F88F606A216800780861606A401C5D
:100D10006062618D491E6185218D491E89B22185E0
:100D200022685369DB435B070BD451B10078106133
:100D3000606A401C6062608D401E6085208D401E90
:100D400020852A464946204601F012F80028CED1D7
:100D5000208D0028C5D154F83D0B016841F4007185
:100D60000160202004F81E09E67766770020C7E7B7
:100D7000FFE70220C4E70000020010000000FFFFB0
:100D8000F0B587B0044614216846FFF75BFB27687F
:100D9000234CDFF888C000222149122303250426B2
:100DA00020481034674518D10F6847F002070F60DC
:100DB000096802AF01F002010591C021CDE90013DD
:100DC00087E864006946FFF7CBFB206840F4001019
:100DD0002060206800F400101CE0DFF84CC067457C
:100DE00019D10F6847F002070F60096802AF01F0E0
:100DF000020105914FF44061CDE9001387E86400DA
:100E00006946FFF7ADFB206840F480002060206851
:100E100000F48000059007B0F0BD000000540040D1
:100E20003038024000040240005800400248816807
:100E30000278114481607047280000200B4810B5EB
:100E4000016841F400710160016841F48061016052
:100E5000016841F480710160032000F061F80F2007
:100E600000F006F800F024F8002010BD003C02401D
:100E700070B50D4D04464FF47A712878B1FBF0F04F
:100E80000A490968B1FBF0F000F004FB48B9102CE6
:100E900007D200222146501E00F022F800206C608C
:100EA00070BD012070BD000028000020340000202B
:100EB0000A4808B5016841F480410160006800F407
:100EC000804000900548001F016841F0805101609A
:100ED000006800F08050009008BD000044380240D7
:100EE000F0B40E4B1B680C46C3F30223C3F1070595
:100EF000042D00D90425191D072901D2002300E083
:100F0000DB1E012606FA05F1491E214099409E404C
:100F1000761E16403143F0BC01F039BB0CED00E009
:100F2000064900F0070208684FF6FF03184040EA40
:100F30000220034A10430860704700000CED00E0F7
:100F40000000FA052DE9F0470E46050065D0DFF8F0
:100F50001481D8F80000F7B200F00700B04207D2C1
:100F600088F80070D8F8000000F00700B04254D1B3
:100F700028683D4C810712D5400703D5206840F40E
:100F8000E05020602878000703D5206840F46040D6
:100F900020602068A96820F0F000084320602878CD
:100FA000C0072DD0304968680839012812D00228BE
:100FB00013D0032811D00968890700292DDA216888
:100FC00021F0030101432160FFF7D4FB814641F288
:100FD000883A0EE009688903EFE709688901ECE7C0
:100FE000FFF7C8FBA0EB0901514502D90320BDE87A
:100FF000F0872068696800F00C00B0EB810FEFD13A
:10100000D8F80010404601F00701B14207D9077037
:10101000006800F00700B04201D00120E7E728781F
:10102000400705D52068E96820F4E05008432060B7
:101030002878000706D52068296920F4604040EA36
:10104000C100206000F03EF82168084AC1F3031196
:10105000515CC8400649086006480068FFF708FF71
:101060000020C4E7003C0240083802404440000829
:10107000340000202C000020014800687047000068
:10108000340000200448054900680968044AC1F397
:101090008221515CC840704734000020083802406B
:1010A000544000080448054900680968044AC1F32F
:1010B0004231515CC840704734000020083802407B
:1010C00054400008154810B5006810F00C02144890
:1010D00013D01449042A0FD0082A0ED10F4C241F14
:1010E0002268236802F03F025B0207D52068C0F344
:1010F0008810A0FB010106E0084610BD2168C1F37D
:101100008811A1FB00010023FFF7AEF82168C1F3AD
:101110000141491C4900B0FBF1F010BD0838024004
:101120000024F40040787D012DE9F84F04006ED0D2
:101130002078DFF84C93C007A9F104054AD009F1E3
:1011400004000168C1F38101012908D00068C0F3DF
:10115000810002280AD1D9F80000400206D528688B
:10116000800337D560680028E1D033E06068B0F5CF
:10117000803F10D0B0F5A02F286810D020F4803028
:101180002860286820F4802028606068A8B1FFF7F4
:10119000F1FA06460DE0286840F48030F4E740F4A8
:1011A00080202860F7E700BFFFF7E4FA801B64287F
:1011B00073D828688003F7D50CE0FFF7DBFA064602
:1011C00005E000BFFFF7D6FA801B6428F0D8286836
:1011D0008003F7D42078DFF8AC8280074FF0000A54
:1011E0003ED5A748001D016811F00C0F08D000681B
:1011F000C0F3810002280BD1D9F80000400207D4C7
:101200002868800716D5E068012800D112E033E194
:10121000E068B8B10120C8F80000FFF7ABFA064655
:1012200005E000BFFFF7A6FA801B0228C0D8286897
:101230008007F7D52868216920F0F80040EAC1004E
:1012400028600DE0C8F800A0FFF794FA064604E015
:10125000FFF790FA801B02281FD828688007F7D470
:101260002078000722D5864F87486169703771B1B1
:1012700001210160FFF77EFA064604E0FFF77AFAE3
:10128000801B022809D838688007F7D50EE0C0F81F
:1012900000A0FFF76FFA064605E082E0FFF76AFA62
:1012A000801B02287DD838688007F7D42078400753
:1012B00068D5DFF8CCB100270BF13C0BDBF8000060
:1012C000C0000BD4DBF8001041F08051CBF80010C7
:1012D000DBF80000012700F0805000906B4E306872
:1012E000C00510D4306840F480703060FFF742FAD7
:1012F000009005E0FFF73EFA0099401A022850D806
:101300003068C005F6D55E4EA0686C3601280FD057
:101310000528306810D020F001003060306820F0DF
:1013200004003060A068B8B1FFF724FA00900FE025
:10133000306840F00100F4E740F004003060F7E767
:10134000FFF718FA0099411A41F28830814266D8B5
:1013500030688007F4D50EE0FFF70CFA009007E044
:10136000FFF708FA0099411A41F28830814256D8B5
:1013700030688007F4D42FB1DBF8001021F08051E1
:10138000CBF80010A069C8B33D49091D0968C1F335
:10139000810102294AD00228504607D0C8F86000CF
:1013A00000E03CE0FFF7E6F904463BE04746C8F8BA
:1013B0006000FFF7DFF9064605E000BFFFF7DAF946
:1013C000801B02282BD828688001F7D4D4E90701B4
:1013D0000843A16A2E4A490802EB0141626A41EAC8
:1013E0008211084394F82C1040EA0161C9F80010FA
:1013F00001203866FFF7BEF9044606E03EE000BF74
:10140000FFF7B8F9001B022809D828688001F7D532
:1014100034E000BFFFF7AEF9001B022802D9032019
:10142000BDE8F88F28688001F4D427E00128F7D0C0
:10143000D9F80000E26900F4800191421CD1226ACF
:1014400000F03F01914217D147F6C071626A014036
:10145000B1EB821F10D1A26A4FF0FF3300F440318C
:1014600003EB5202B1EB024F06D194F82C1000F0BE
:101470007060B0EB016F01D00120D1E70020CFE711
:101480000438024000004742800E4742007000408E
:101490000000FFFF10B5401EB0F1807F01D3012096
:1014A00010BD4FF0E02460610F21601701F06FF86C
:1014B0000020A06107202061002010BD10B590F829
:1014C0003C20012A22D0012280F83C20CA688C6886
:1014D00022F4407222434C6822F4806222430C685A
:1014E00022F4006222430C6922F4805222434C69A8
:1014F00022F400522243C969002322F480420A43A5
:1015000001684A6480F83C30002010BD022010BD04
:1015100070B590F83C20012A32D0012480F83C407C
:10152000022280F83D2003685A689D6822F0700608
:101530000A6832435A60134B02689A4214D0B2F1DF
:10154000804F11D0104B9A420ED0104B9A420BD0C4
:101550000F4B9A4208D00F4B9A4205D00E4B9A423D
:1015600002D00E4B9A4204D1496825F080031943FA
:10157000916080F83D40002180F83C10084670BD25
:10158000022070BD0000014000040040000800403F
:10159000000C0040000401400040014000180040E1
:1015A00010B5040003D094F83D0010B107E001200D
:1015B00010BD002084F83C00204600F01FF80220F7
:1015C00084F83D00211D206800F0B4FD012084F85E
:1015D000460084F83E0084F83F0084F8400084F818
:1015E000410084F8420084F8430084F8440084F801
:1015F000450084F83D00002010BD000008B50068DB
:101600000649884208D10648016841F0010101609D
:10161000006800F00100009008BD000000000140DB
:101620004438024070B5044690F83C00002501287B
:1016300017D0012684F83C60022084F83D00206821
:10164000826822F0770222F47F4282600868502884
:1016500038D00DDC20284FD005DC90B3102811D1F4
:101660004AE0022070BD302846D040280AD13BE035
:1016700060282FD070280DD0B0F5805F03D0B0F572
:10168000005F12D0012584F83D60002084F83C0002
:10169000284670BDCB68D1E90121206800F0BBFD70
:1016A0002068816841F0770109E0CB68D1E9012128
:1016B000206800F0B0FD2068816841F480418160BD
:1016C000E1E719E0CA684968206800F079FE502116
:1016D000206806E0CA684968206800F082FE602140
:1016E000206800F0A2FDCEE7CA684968206800F0D3
:1016F00067FE40212068F4E7226801461046F0E7C3
:1017000010B586B0044614216846FEF79BFE0E49CC
:101710002068884216D10D480021026842F010026C
:101720000260006800F0100005904FF40070009017
:101730000220CDE901010120CDE9031069460448EA
:10174000FEF70EFF06B010BD000001403038024029
:101750000010024070B5044690F83C0000260D468B
:1017600001280FD0012084F83C006AB1042A1DD062
:10177000082A2FD00C2A3FD00126002084F83C00F4
:10178000304670BD022070BD206800F057FD206813
:10179000816941F0080181612068816921F00401BB
:1017A0008161206881692A69114311E0206800F095
:1017B00075FD2068816941F400618161206881695B
:1017C00021F480618161206881692A6941EA0221EE
:1017D0008161D2E7206800F097FD2068C16941F07F
:1017E0000801C1612068C16921F00401C16120685C
:1017F000C1692A69114311E0206800F0B9FD206831
:10180000C16941F40061C1612068C16921F480614E
:10181000C1612068C1692A6941EA0221C161ACE75E
:1018200010B5040003D094F83D0010B107E001208A
:1018300010BD002084F83C00204600F01EF8022075
:1018400084F83D00211D206800F074FC012084F81C
:10185000460084F83E0084F83F0084F8400084F895
:10186000410084F8420084F8430084F8440084F87E
:10187000450084F83D00002010BD704710B50446B7
:10188000022249B104290ED0082913D094F841004E
:10189000012816D0012010BD94F83E000128F9D18E
:1018A00084F83E200FE094F83F000128F2D184F83C
:1018B0003F2008E094F840000128EBD184F8402054
:1018C00001E084F841200122206800F097FC1649CD
:1018D0002068164A884201D0904203D1436C43F4F9
:1018E000004343642068884213D0B0F1804F10D089
:1018F0000F4988420DD00F4988420AD00E498842CC
:1019000007D0904205D00D49884202D00C49884248
:1019100004D1816801F00701062903D0016841F074
:1019200001010160002010BD0000014000040140E1
:101930000004004000080040000C0040004001404E
:101940000018004070B5040004D094F83D00002554
:1019500010B106E0012070BD84F83C50204600F034
:1019600023F8242084F83D002068C16821F4005148
:10197000C160204600F048FD2068016921F49041D3
:1019800001612068416921F02A0141612068C16834
:1019900041F40051C1602564202084F83D0084F8A2
:1019A0003E00002070BD0000F0B587B00446142151
:1019B0006846FEF747FD1F4F236800221E49022498
:1019C000032507261D48BB4213D11B4B14331F6848
:1019D00047F010071F601B6803F0100305930B68A6
:1019E00043F001030B60096801F0010105916902F0
:1019F00015E0134FBB421AD10F4B10331F6847F449
:101A000000371F601B6803F4003305930B6843F035
:101A100001030B60096801F0010105910C21CDE97A
:101A2000001402AB694683E86400FEF799FD07B035
:101A3000F0BD0000001001403038024000000240BC
:101A4000004400402DE9F84F044690F83E009A46C5
:101A500016460D46202853D1FDB1F6B194F83C004E
:101A600001284DD0012084F83C0000272764222063
:101A700084F83E002763FEF77DFEA6858146E68555
:101A8000A0684FF48058404501D1206940B12E46EE
:101A90005FF0000584F83C7027E00120BDE8F88F76
:101AA0000026F7E74B46002220212046CDF800A073
:101AB00000F030FD08B10320F0E726B1A0684045F2
:101AC0001BD038B108E020684068C0F3080025F852
:101AD000020B07E0206980B12068406800F07F00B9
:101AE00006F8010BE08D401EE085E08D0028D9D17D
:101AF000202084F83E000020D0E720684068EFE70F
:101B00000220CBE72DE9F843044690F83D001F463C
:101B100016460D4620284CD1C5B1BEB194F83C0004
:101B2000012846D0012084F83C004FF00008C4F89A
:101B30004080212084F83D00FEF71CFEA6848146EB
:101B4000E684A068B0F5805F03D004E00120BDE822
:101B5000F883206928B12E465FF0000584F83C80A8
:101B60000EE00026FAE78021204600F0D3FCA0B961
:101B7000AEB116F8010B21684860E08C401EE0848D
:101B8000E08C4B464FF0000200970028EBD14FF05D
:101B90004001204600F0BEFC30B10320D7E735F805
:101BA000020BC0F30800E6E7202084F83D00002087
:101BB000CDE70220CBE7FEE701684A69D243520530
:101BC0000FD46FF480624A61002140F8301F202258
:101BD00042738173026942F00402026101730120C1
:101BE00070470020704700002DE9F84F0446C06A96
:101BF0001E4693460D4621680A6842F480620A60D8
:101C0000082807D0012805D010F5803F02D0206BAE
:101C1000112804D12068016841F4807101604FF0FF
:101C200001195B46002249462046009600F0C6F89E
:101C30004FF4007840B120680068C00501D5C4F8B1
:101C400040800320BDE8F88F2069DFF884A0B0F55C
:101C5000804F0FD00620216800EAD51747F0F0002A
:101C6000086133465A460AF10601204600F0DAF8C8
:101C700058BB03E0E8B240F001001CE02168E8B284
:101C8000086133465A465146204600F0CBF8E0B989
:101C90002068416981690091016841F480710160A7
:101CA0005B46002249462046009600F087F800284F
:101CB000C1D147F0F1002168086133465A465146C8
:101CC000204600F0AFF80028BCD00120BAE70000A1
:101CD00002000100F8B50446C06A1E460D461746CC
:101CE000082807D0012805D010F5803F02D0206BCE
:101CF000122804D12068016841F480710160134604
:101D000000224FF001112046009600F057F840B134
:101D100020680068C00502D54FF4007020640320DD
:101D2000F8BD2069B0F5804F0ED00620216800EA8A
:101D3000D51040F0F000086133463A460B49204682
:101D400000F070F878B902E005F0FE0000E0E8B2BB
:101D500021680861054933463A46891F204600F04C
:101D600061F80028DCD00120F8BD00000800010067
:101D700070B516460D4604460DE02046FFF71CFFE1
:101D800008B1012070BD681C05D0FEF7F3FC801B74
:101D9000A84207D835B120684069C0434007ECD459
:101DA000002070BD002044F8300F20216173A07323
:101DB000216941F0200121612073E2E72DE9F0471C
:101DC0001E4690460D460446C1F30747DDF82090B5
:101DD00008E0701C06D0FEF7CDFCA0EB0900B04275
:101DE0000FD876B12068012F18D0806925EA00004D
:101DF0000004000C14D000214145EAD00020BDE8C9
:101E0000F087002044F8300F20216173A07321690E
:101E100041F02001216120730120F0E74069E5E7EE
:101E20000121E9E72DE9F0479A4691460E4604461E
:101E300000254FF02008C1F3074725E020684069DE
:101E4000C043400514D42068016841F4007101606A
:101E500021686FF480604861256384F83D8084F8D0
:101E60003E50206C40F00400206484F83C501FE099
:101E7000B9F1FF3F08D0FEF77DFCA0EB0A01494510
:101E80000CD8B9F1000F09D02068012F13D0806958
:101E900026EA00000004000C0BD0CFE744F8305FC6
:101EA00084F80D80A573206940F02000206125731F
:101EB0000120BDE8F0874069EAE72DE9F0410025FF
:101EC00090460E460446202717E04069C043C006EE
:101ED0000CD454F8301B6FF01000486144F81059CE
:101EE0006777A577206A2062257717E0FEF742FC26
:101EF000A0EB0800B04208D83EB120684169C94350
:101F00004906E2D40020BDE8F08144F8305F6773F1
:101F1000A573206940F02000206125730120F2E7BD
:101F200070B516460D4604460DE02046FFF744FE08
:101F300008B1012070BD681C05D0FEF71BFC801B9A
:101F4000A84207D835B120684069C0430006ECD4E8
:101F5000002070BD002044F8300F20216173A07371
:101F6000216941F0200121612073E2E7114808B5A1
:101F7000016841F080010160016801F08001009179
:101F8000016841F001010160016801F00101009167
:101F9000016841F010010160016801F01001009139
:101FA000016841F002010160006800F00200009049
:101FB00008BD00003038024010B596B000240F94E0
:101FC00010941194129413941C2108A81494FEF7F1
:101FD00039FA20216846FEF735FA29482749016079
:101FE00044F29F11C0E9011440F21971C0E90314D1
:101FF00044618461FFF7D4FA08B172B6FEE74FF48A
:1020000080500F900FA91E48FFF70CFB08B172B665
:10201000FEE71B48FFF704FC08B172B6FEE7139415
:1020200013A917481494FFF773FA08B172B6FEE7C4
:102030006020CDE908040A940B940C940D940022BE
:1020400008A90F480E94FFF785FB08B172B6FEE7AA
:1020500000944FF40050CDE904400294019403949D
:10206000694607480794FFF729FA08B172B6FEE7F8
:102070000348FFF745FB16B010BD0000000001400B
:1020800030090020FEE7FEE770477047FEF7CEBE3E
:1020900030B593B030216846FEF7D4F914210CA86E
:1020A000FEF7D0F91D480025016841F0805101601C
:1020B000006800F0805011901948016841F4804197
:1020C00001600068022400F4804011900120039018
:1020D00010200490009406940820CDE90750A82011
:1020E000CDE9090404200B906846FFF71DF808B1FC
:1020F00072B6FEE70CA90F2081E831004FF4A05022
:102100000F904FF48050109005210CA8FEF71AFF95
:10211000002801D072B6FEE713B030BD403802404F
:10212000007000400248016841F47001016070478E
:1021300088ED00E0F0B50268254C264D264E274F6D
:10214000274B4FF0804CA04209D0604507D0A842F1
:1021500005D0B04203D0B84201D0984204D122F059
:10216000700E4A6842EA0E02A0421BD0604519D0A8
:10217000A84217D0B04215D0B84213D0984211D01F
:10218000184DA8420ED0184DA8420BD0174DA842AA
:1021900008D0174DA84205D0164DA84202D0164DC2
:1021A000A84203D122F44075CA682A434D6922F03F
:1021B00080022A4302608A68C2620A688262A04280
:1021C00001D0984201D10969016301214161F0BD4B
:1021D000000001400004004000080040000C0040E6
:1021E000000401400040014000440140004801401B
:1021F00000180040001C00400020004010B501F015
:102200001F030121046A99408C430462016A9A40C9
:102210001143016210BD10B5846842EA032224F420
:102220007F440A432243826010BD826822F070021C
:102230000A4342F00701816070470000F0B5026A6E
:1022400022F001020262036A42688469124E24F09D
:1022500073050C682C4323F002058B682B430D4D4E
:10226000A84201D0B04205D123F00807CB683B4318
:1022700023F00403A84201D0B04205D14D6922F4F5
:10228000407215438A692A43426084614968416308
:102290000362F0BD0000014000040140F0B5026A95
:1022A00022F010020262026A436884690D6824F415
:1022B000E64444EA05248D6822F0200242EA051231
:1022C0000F4D104EA84201D0B04206D1CF6822F087
:1022D000800242EA071222F04002A84201D0B04236
:1022E00007D14D6923F4406343EA85038D6943EACE
:1022F000850343608461496881630262F0BD000028
:102300000000014000040140F0B5026A22F480722E
:102310000262026A4368C46922F4007224F0730501
:102320000C68124E2C438D6842EA05220E4DA842DD
:1023300001D0B04206D1CF6822F4006242EA0722FF
:1023400022F48062A84201D0B04207D14D6923F443
:10235000405343EA05138D6943EA05134360C461A2
:102360004968C1630262F0BD000001400004014001
:1023700030B5026A22F480520262046A4268C3697C
:102380000D6823F4E64343EA05238D6824F40054E2
:1023900044EA0534084DA84202D0084DA84204D1B1
:1023A0004D6922F4804242EA85124260C361496865
:1023B0000164046230BD00000000014000040140DF
:1023C00010B5036A046A24F001040462846924F0ED
:1023D000F00444EA021423F00A020A438461026210
:1023E00010BD10B5036A23F0100303628369046A09
:1023F00023F4704343EA023224F0A00343EA0111BC
:102400008261016210BD000070B504460068016978
:10241000E26821F44051114301612169A068E26939
:1024200008436169114308432168CA6849F20C6393
:102430009A430243CA6020684169A26921F440714D
:102440001143416131492068884202D030498842B5
:1024500002D1FEF727FE01E0FEF714FEE269002339
:10246000192164253226B2F5004F626828D0A0FBFE
:102470000101930F9200FDF7F7FE0146B0FBF5F066
:102480006FF01802504301EB800006EB0010B0FB28
:10249000F5F000F0F002B1FBF5F002EB0012B1FB39
:1024A000F5F06FF01803584301EB800006EB0010C5
:1024B000B0FBF5F000F00F0021681044886070BD9B
:1024C000A0FB010192185B41FDF7CEFE0146B0FB77
:1024D000F5F00201B1FBF5F06FF01803584301EB82
:1024E000800006EBC000B0FBF5F000F0F80002EB56
:1024F0004002B1FBF5F0584301EB800006EBC00051
:10250000B0FBF5F000F00700D6E700000010014036
:10251000001401402DE9F041984617460E46044646
:10252000069D27E0681C25D02DB1FEF723F9A0EB0E
:102530000800A8421ED920680C3050E8001F21F482
:10254000D07140E80012002AF5D12068143050E81C
:10255000001F21F0010140E80012002AF5D12020DF
:1025600084F83D0084F83E00002084F83C000320FD
:10257000BDE8F0812068006836EA000004D0002041
:10258000B842CFD00020F3E70120F9E7FEE70907C2
:10259000090E002804DB00F1E02080F800147047E9
:1025A00000F00F0000F1E02080F8141D70470000DB
:1025B0002DE9F0412DED020B9FED3D0B2DED028B32
:1025C0009FED3D8BDDE90254C4F30A50A0F2FF36C3
:1025D000142E37DA002E18DA53EC102B9DED020B77
:1025E00051EC100B01F01CF853EC182B01F0F4FB2C
:1025F00057D2002CA4BF0024254652DA24F0004014
:10260000284318BF2E4C4CD01AE02E4820FA06F76B
:1026100004EA070028431FD053EC102B9DED020B5A
:1026200051EC100B00F0FCFF53EC182B01F0D4FB25
:1026300037D2002C03DA4FF48010F0400444BC433E
:1026400000252EE0332E07DCA6F114004FF0FF31F9
:1026500021FA00F73D4206D19DED020BBDEC028B45
:1026600002B0BDE8F08153EC102B9DED020B51EC54
:10267000100B01F0E7FB53EC182B01F0ADFB10D26F
:10268000002C0DDA142E08BF641C09D0C6F13400EA
:10269000012101FA00F02844A84238BF641C054615
:1026A000BD43CDE902549DED020BD7E700000000C9
:1026B0009C7500883CE4377E0000000000000000AC
:1026C0000000F0BFFFFF0F000021022000F08CB8D7
:1026D0002DE9F04381462DED028BADF5217D9FED77
:1026E000208B002480AEE846351904F18000C0B28A
:1026F0000122294600F038F804F18100691CC0B2BB
:10270000012200F031F86D78305D05F0070140EAF4
:10271000012001F013FA53EC182B01F05FFA41ECA1
:10272000100B04EBD470411008EBC107280787EDAC
:10273000000B05D551EC100B00F034FFC7E9000188
:10274000A41C802CD0DB4FF4007269464846FDF78C
:1027500047FE0DF5217DBDEC028BBDE8F083000046
:10276000000000000000D03FF7B582B0094C64259E
:10277000009516460F46012302AA21786068FEF7ED
:1027800069FA009533463A4621786068FEF772F997
:1027900005B0F0BD180000203F21012000F024B852
:1027A0000146002000F020B870B504463220FDF745
:1027B000C5FE0C4D6C60002464230122214668682C
:1027C000FEF7A2F858B1641CE4B2FF2CF4D3002049
:1027D000FFF7E6FFFFF7E0FFFFF776FF70BD2C7015
:1027E000F5E70000180000201CB502238DF8040056
:1027F0000A20009004488DF8051001AA017840686D
:10280000FEF728FA1CBD00001800002070B58AB041
:1028100014A10646D1E900016425144C0095CDE9C8
:102820000101062301AA21786068FEF713FA0095DA
:10283000102303AA21786068FEF71CF9BDF8110087
:10284000ADF81C00BDF81300ADF81E00BDF8150072
:10285000ADF8200007983060BDF82000B0800AB0C5
:1028600070BD000055AA110020300000200000209B
:1028700070B594B022A10646D1E900016425224C2E
:102880000095CDE90101062301AA21786068FEF7D1
:10289000E1F90095322307AA21786068FEF7EAF88B
:1028A0009DF8200029280BD1BDF82100ADF80C00BF
:1028B000BDF82300ADF80E00BDF82500ADF81000FE
:1028C0009DF830002A2813D1BDF83100ADF8120070
:1028D000BDF83300ADF81400BDF83500ADF81600B2
:1028E000BDF83700ADF81800BDF83900ADF81A0092
:1028F000102203A93046FDF72EFD14B070BD000074
:1029000055AA1100213100002000002030B50446F6
:1029100085B03220FDF712FE1E4D6C600024A1B27E
:102920000A2301226868FDF7EFFF00B92C70641CD0
:10293000FF2CF4DB18A16424D1E900010094CDE957
:102940000301062303AA29786868FEF783F9009437
:10295000062301AA29786868FEF78CF89DF8040020
:10296000552812D19DF80500AA280ED19DF8060021
:1029700011280AD19DF8070038B99DF808002E28C3
:1029800003D19DF809003E2802D0032005B030BDD8
:102990000020FBE72000002055AA11002C3C00007D
:1029A0000179407981EA51010140C80701D0002036
:1029B00070470320704700002DE9F04104462DEDDB
:1029C000108B0025204600F033FB6D1C0646EDB24F
:1029D000032811D09FEDF79B9FEDF8AB9FEDF9CB4E
:1029E0009FEDFADB9FEDFBEB9FEDFCFB9FEDFD8B7D
:1029F0009FEDFEBB1EB111E3142DE3D30EE360790E
:102A0000A179400840EAC11001F098F80D4645EC64
:102A1000100B074653EC182B51EC100B01F0DEF8AD
:102A200000F0CCFDC4F89400B4F8070001F086F87B
:102A300053EC192B01F0D2F853EC1A2B00F0A4FE42
:102A400000F0BCFDC4F89800207945EC107B00F044
:102A5000010184F86F10800884F8700053EC182B83
:102A600051EC100B01F0BAF853EC1F2B01F0B4F944
:102A700036D86079A179400840EAC11001F05EF8CB
:102A800053EC182B01F0AAF853EC1C2B01F06AF858
:102A900026D8B4F8070001F051F853EC192B01F0D7
:102AA0009DF853EC1A2B00F06FFE00F087FD0546F1
:102AB0006079A179400840EAC11001F03FF853EC79
:102AC000182B01F08BF841EC100BFFF771FD51EC66
:102AD000100B00F0EDFF04EB8000C0F89C509DE26D
:102AE0006079A179400840EAC11001F027F853EC61
:102AF000182B01F073F853EC1C2B01F06DF93CD846
:102B00006079A179400840EAC11001F017F853EC50
:102B1000182B01F063F89FEDB71B53EC112B01F05C
:102B200021F82AD8B4F8070001F008F853EC192B63
:102B300001F054F853EC1A2B00F026FE00F03EFD95
:102B400005466079A179400840EAC11000F0F6FF1F
:102B500053EC182B01F042F853EC1C2B01F07EF9DA
:102B600041EC100BFFF724FD51EC100B00F0A0FF1F
:102B700004EB8000C0F8505150E26079A179400820
:102B800040EAC11000F0DAFF53EC182B01F026F8F0
:102B90009FED98CB53EC1C2B01F01EF93CD86079CB
:102BA000A179400840EAC11000F0C8FF53EC182B8F
:102BB00001F014F89FED911B53EC112B00F0D2FFA4
:102BC0002AD8B4F8070000F0B9FF53EC192B01F034
:102BD00005F853EC1A2B00F0D7FD00F0EFFC05468A
:102BE0006079A179400840EAC11000F0A7FF53ECDA
:102BF000182B00F0F3FF53EC1C2B01F02FF941ECE4
:102C0000100BFFF7D5FC51EC100B00F051FF04EB5B
:102C10008000C0F8045201E26079A179400840EADE
:102C2000C11000F08BFF53EC182B00F0D7FF9FED85
:102C300073CB53EC1C2B01F0CFF83AD86079A17913
:102C4000400840EAC11000F079FF53EC182B00F067
:102C5000C5FF53EC1D2B00F085FF2AD8B4F8070000
:102C600000F06CFF53EC192B00F0B8FF53EC1A2B5B
:102C700000F08AFD00F0A2FC05466079A1794008C9
:102C800040EAC11000F05AFF53EC182B00F0A6FFE9
:102C900053EC1C2B01F0E2F841EC100BFFF788FC21
:102CA00051EC100B00F004FF04EB8000C0F8B852A8
:102CB000B4E16079A179400840EAC11000F03EFF1C
:102CC00053EC182B00F08AFF53EC1D2B01F084F815
:102CD0003AD86079A179400840EAC11000F02EFF8F
:102CE00053EC182B00F07AFF53EC1E2B00F03AFF48
:102CF0002AD8B4F8070000F021FF53EC192B00F09C
:102D00006DFF53EC1A2B00F03FFD00F057FC054619
:102D10006079A179400840EAC11000F00FFF53EC40
:102D2000182B00F05BFF53EC1D2B01F097F841ECE2
:102D3000100BFFF73DFC51EC100B00F0B9FE04EB5B
:102D40008000C0F86C5369E16079A179400840EADD
:102D5000C11000F0F3FE53EC182B00F03FFF53ECD2
:102D60001E2B01F039F86AD86079A179400840EA51
:102D7000C11000F0E3FE53EC182B00F02FFF9FED85
:102D8000211B53EC112B00F0EDFE58D8B4F80700CE
:102D900000F0D4FE53EC192B00F020FF53EC1A2B5B
:102DA00000F0F2FC00F00AFC05466079A1794008C9
:102DB0002CE00000000000000000D03F00000000F8
:102DC0000000244000000000008046400000000099
:102DD000008066400000000000206C400000000001
:102DE00000000000000000000000903F0000000014
:102DF00000B073400000000000805640000000005A
:102E000000E060400000000000E0704040EAC110B7
:102E100000F094FE53EC182B00F0E0FE53EC1E2B58
:102E200001F01CF841EC100BFFF7C2FB51EC100B4A
:102E300000F03EFE04EB8000C0F82054EEE0607924
:102E4000A179400840EAC11000F078FE53EC182B3D
:102E500000F0C4FE1FED15CB53EC1C2B00F0BCFFA3
:102E60003AD86079A179400840EAC11000F066FEC6
:102E700053EC182B00F0B2FE53EC1B2B00F072FE4B
:102E80002AD8B4F8070000F059FE53EC192B00F0D3
:102E9000A5FE53EC1A2B00F077FC00F08FFB0546E3
:102EA0006079A179400840EAC11000F047FE53EC78
:102EB000182B00F093FE53EC1C2B00F0CFFF41ECDD
:102EC000100BFFF775FB51EC100B00F0F1FD04EB5C
:102ED0008000C0F8D454A1E06079A179400840EAAC
:102EE000C11000F02BFE53EC182B00F077FE53ECD2
:102EF0001B2B00F071FF11D86079A179400840EADE
:102F0000C11000F01BFE53EC182B00F067FE9FED84
:102F1000461B53EC112B00F025FE23D96079A179D3
:102F2000400840EAC11000F009FE53EC182B00F0F5
:102F300055FE53EC1F2B00F04FFF6FD86079A1793D
:102F4000400840EAC11000F0F9FDB0EE481AF0EE7A
:102F5000681A53EC112B00F041FE53EC1F2B00F0CC
:102F600001FE5BD86079A179400840EAC11000F009
:102F7000E5FD884648EC100B054653EC182B51EC48
:102F8000100B00F02BFE53EC1B2B00F067FF41EC05
:102F9000100BFFF70DFB51EC100B00F089FD002822
:102FA000B4F8070019DD00F0C9FD53EC192B00F04F
:102FB00015FE53EC1A2B00F0E7FB00F0FFFA48EC8B
:102FC000105B074653EC182B51EC100B00F006FE7B
:102FD00053EC1B2B00F042FF14E000F0AFFD53EC6C
:102FE000192B00F0FBFD53EC1A2B00F0CDFB00F089
:102FF000E5FA48EC105B074653EC182B51EC100B2C
:1030000000F0ECFD41EC100BFFF7D2FA51EC100B85
:1030100000F04EFD04EB8000C0F888753046BDEC32
:10302000108BBDE8F08100000000000000807640B9
:1030300010B50446006864230522211DFEF702FD39
:1030400008B1012010BD2046BDE81040FFF7A8BC24
:103050000179A5290FD141795A290CD18179052906
:1030600009D1C17939B9017A29B9417A402902D106
:10307000817A812901D00220704700214218491C21
:103080001379C9B282F868300729F7D30020704756
:1030900008B506A164230968009100680222694608
:1030A000FEF730FD1420FDF749FA08BDA525000004
:1030B00038B504460AA064230068009002226946DD
:1030C0002068FEF71FFD64230722211D2068FEF7FC
:1030D000B9FC08B1012038BD2046FFF7B9FF38BD63
:1030E000A5200000E74DADF5007DA5F684163560FE
:1030F000FDF7A4FEFEF7CCFFFEF738FFA5F59A70AA
:10310000E149E24F00240160C0E901744FF48048B6
:10311000C0E9034844618461C4610462FDF730FB87
:1031200008B172B6FEE7D748D949E0380160C0E976
:103130000174C0E9034844618461C4610462FDF71D
:103140001FFB08B172B6FEE7FEF736FFCD48D14946
:1031500044384FF4E1380160C0E901840C27C460B1
:10316000C0E904478461C461FEF7ECFB08B172B6A4
:10317000FEE7C9482860C5E90184EC60C5E9044759
:10318000AC61C048EC61FEF7DDFB08B172B6FEE74A
:10319000C2494FF4FA604863BA4800218C38FEF700
:1031A0006DFBBF48FFF774FF4FF47A70FDF7C6F967
:1031B000BC48FFF7F9FABC4D4FF4005418B1214652
:1031C0002846FDF7CAFAB7485430FFF79FFB18B9F5
:1031D00021462846FDF7C1FA6846FFF717FBB34CB6
:1031E00000984FF48071C4F80200BDF80400E0803C
:1031F00004F110008180AE490160A948FFF758FF33
:1032000020700028F9D1A648FFF7D6FBA74908701F
:10321000002105918B468E46019104910391029104
:1032200089460E468A460D460C460B460A460F4610
:1032300000919B48DFF87CC200EB870090ED270AE5
:1032400010EE108AE0450BDB00EE901A09F101093F
:10325000F8EEE00A30EE200ABDEEC00A10EE101AB9
:1032600090ED540ADFF84CC210EE108AE0450ADBFC
:1032700000EE90BA761CF8EEE00A30EE200ABDEEC1
:10328000C00A10EE10BA90ED810ADFF8288210EE25
:1032900010CAC4450BDB00EE90EA0AF1010AF8EE11
:1032A000E00A30EE200ABDEEC00A10EE10EA90ED02
:1032B000AE0A10EE10CAC44513DBDDF804C000EE00
:1032C00090CAF8EEE00A30EE200ABDEEC00A10EE19
:1032D00010CACDF804C0DDF800C00CF1010CCDF827
:1032E00000C090EDDB0ADFF8CC8110EE10CAC445B7
:1032F0000EDBDDF810C06D1C00EE90CAF8EEE00A9F
:1033000030EE200ABDEEC00A10EE10CACDF810C093
:1033100000F58068674898ED080A10EE10CA8445E9
:103320000EDBDDF80CC0641C00EE90CAF8EEE00A7B
:1033300030EE200ABDEEC00A10EE10CACDF80CC067
:1033400098ED350A10EE10CA84450EDBDDF808C092
:103350005B1C00EE90CAF8EEE00A30EE200ABDEEEB
:10336000C00A10EE10CACDF808C098ED620A10EE3F
:1033700010CA84450CDB0598521C00EE900AF8EE4A
:10338000E00A30EE200ABDEEC00A10EE100A0590E9
:103390007F1C2D2FFFF64DAF91FBF9F000EE100AC8
:1033A0009BFBF6F7B8EEC00A3D4880ED1D0A00EE23
:1033B000107A9EFBFAF7B8EEC00A80ED1E0A00EE06
:1033C000107AB8EEC00A80ED1F0ADDE900C797FB4E
:1033D000FCF700EE107AB8EEC00A80ED200A049FD8
:1033E00097FBF5F700EE107AB8EEC00A80ED210ADF
:1033F000039F97FBF4F700EE107AB8EEC00A80ED59
:10340000220A029F97FBF3F700EE107AB8EEC00A8B
:1034100080ED230A059F97FBF2F700EE107AB8EED5
:10342000C00A80ED240A91FBF9F09BFBF6F09EFBAD
:10343000FAF0019890FBFCF0049890FBF5F00398EB
:1034400090FBF4F0029890FBF3F091FBF2F06846E9
:10345000FFF73EF94FF4007269461748FCF7C0FFCA
:103460006846FFF705FA0F48102269461038FCF746
:1034700072FF0E4CD4E9040100F020F884ED020B39
:10348000C1E60000BC09002000540040A0860100F5
:10349000005800400010014000440040000001407E
:1034A00038000020880800200008024000000020AA
:1034B00000040240CDCCCC3D78060020F0B58EB2A1
:1034C0002DED068B85B0044600229FED32AB3146D0
:1034D000FDF74BF914216846FCF7B4FF01200025E5
:1034E0000096CDE90105204669460395FDF738F8B9
:1034F000204601223146FDF738F90520FDF706F890
:10350000204600223146FDF730F940F2EE20FCF76C
:10351000FDFF02200096CDE9015020466946FDF7E7
:103520001FF844F6440720463146FDF711F960B113
:1035300053EC1A2B51EC180B00F07EFA12D12846EE
:1035400000F0E5FA41EC180B0CE020463146FDF79F
:10355000FFF838B9732D05DD284600F0D8FA41ECA4
:10356000190B05E00120FCF7D1FF6D1CBD42DADB31
:1035700053EC182B51EC190B00F070FC9FED071B5E
:1035800053EC112B00F000F905B041EC100BBDEC31
:10359000068BF0BD000000000000000000000000ED
:1035A00000C0824081F00041704780F000407047C9
:1035B00021F00041704720F00040704721F00042A8
:1035C000A2F16052B2F5801F01F0004328BFD2F192
:1035D0007F6C0BD95FEA001C43EAC20242EB5070D9
:1035E00018BF704728BF20F001007047B2F5801F58
:1035F000BCBF184670474FEA410C1CF5001F02D2B1
:10360000084600F01ABD70B500F092FB000000897A
:10361000FFF7F6BF4FF00040A0F5800070470000B4
:1036200010B591EA030F48BF83F0004300F11E84F8
:10363000841A71EB030C05D2121943EB0C03001B27
:1036400061EB0C01DFF824E14FEA1154A4EB135CA9
:103650001EEA430F18BF9EEA445F73D023EA0E03AD
:10366000DCF1200E21EA045143F4801332D322FA14
:103670000CFE10EB0E0023FA0CFE41EB0E01CCF118
:10368000200E03FA0EFE10EB0E0051F10001B1F511
:10369000801FCCF1200E32D201EB045112FA0EF24F
:1036A000BDE8104058BF7047401C38BF5FEA420277
:1036B00018BF7047002814BF20F0010041F100013D
:1036C0004FEA410313F5001F38BF7047A1F1C04115
:1036D00000F07CBB012A43EB0302ACF1200CDCF1CF
:1036E0001F0E32BF4FF0000E23FA0CF310EB030055
:1036F00041EB0451B4EB115FD0D0A1EB045101F5C3
:10370000801149085FEA300001EB04510ED350F1FB
:10371000000038BF12FA0EFE08D1BDE81040C9E71C
:10372000401C38BF5FEA4202CAD1C3E7BDE810407F
:103730004FEA410313F5001F38BF7047A1F1C041A4
:1037400000F044BB9EEA445F08D011EA5E0FBDE87A
:10375000104004BF01F0004100207047BDE8104058
:1037600070B500F0E5FA00BF64FBBE3E0000E0FF6C
:10377000491058BFC1F140415B1058BFC3F14043ED
:103780008B42EFF3008070472DE9C04130B4DFF881
:10379000A0C23CEA111418BF3CEA131400F0EC80FC
:1037A00081EA03051CEA111444EAD57418BF1CEA27
:1037B000131500F0C780A4EB05044FF0004545EA5F
:1037C000C12145EAC32341EA505143EA525304F16F
:1037D0007F74994204F500344FEAC0204FEAC222B8
:1037E00008BF904200F09C804FEA13650FF240162C
:1037F000765D4FEA134506FB05F7C7F1807706FBB8
:1038000007F74FEAD737A7FB03687642C8F5803839
:10381000A7FB06CE38BFA8F1010807FB08E64FF06A
:10382000000EA6FB028CE6FB03CEDCF1000CCEF111
:10383000004E38BFAEF1010EA6FB0C584FF000074A
:103840004FF00005E6FB0E87A1FB08C6A0FB07CEE4
:1038500016EB0E0645F10005E1FB076515F1E04E9C
:103860007EBFA4F580345FEA46066D4116F18007FD
:1038700045F100054FEA17274FEA066647EA056754
:10388000A6F1DE46B6F1805F4FEA15251FD938460E
:1038900024F0010C05EBC471BCF1FE6F01EB0C11BF
:1038A00002D8F0BCBDE8008124425CBF01F5801E57
:1038B0009EEAC47F02D4F0BCBDE80081244238D423
:1038C000F0BCA1F1C041BDE8004100F07FBA4FEA71
:1038D000D22242EA43524FEAD323A7FB02864FEAA1
:1038E000D02040EA415007FB03661EEA0E0F4FEA64
:1038F000D12105FB026658BFA6EB0056B6EB005679
:103900004FEA520E4EEAC37E18EB0E0E56EB530EE4
:10391000BDD518EB02085E417F1C55F10005B6E7E6
:103920004FF480154FF000074FF000064FF00008ED
:10393000ADE7F0BC4FF0000001F1C04101F00041E3
:10394000BDE8008111EA0C1F0CEA131500D00CE051
:1039500013EA0C1F00F025804FF00000F0BC81EA54
:10396000030101F00041BDE80081F0BCBDE8004169
:1039700081EA030100F02ABAF0BCBDE8004170B54D
:1039800000F0D6F9097EFC3E00F007B881EA030199
:103990004FF0000001F00041704781EA030100F0A0
:1039A00015BAF0BCBDE800414FF000002149704756
:1039B000FFFDFBF9F7F5F4F2F0EEEDEBE9E8E6E4F4
:1039C000E3E1E0DEDDDBDAD8D7D5D4D3D1D0CFCD7B
:1039D000CCCBCAC8C7C6C5C4C2C1C0BFBEBDBCBBB4
:1039E000BAB9B8B7B6B5B4B3B2B1B0AFAEADACABAF
:1039F000AAA9A8A8A7A6A5A4A3A3A2A1A09F9F9E89
:103A00009D9C9C9B9A99999897979695959493933A
:103A1000929191908F8F8E8E8D8C8C8B8B8A8989D1
:103A20008888878786858584848383828281818054
:103A30000000FF070000F87F51EA030C17D41CF5C3
:103A4000801F58BFBCF5801F00F10680994218BF47
:103A5000704708BF9042704707D711F5801F58BFC5
:103A600013F5801F19D499427047894270471CF59D
:103A7000801F08D5BCF5801FF7D58B4218BF704753
:103A800008BF824270474FF4001C1CEB410F38BF47
:103A90001CEB430F01D28B42704770B500F048F920
:103AA000922449004FF000514FF08053FFF760BE61
:103AB0004FEA41034FEA5353A3F58063D3F11E034A
:103AC000C8BFD3F1210C0CDD4FF0004242EAC12205
:103AD00042EA505232FA03FC8CEAE17CACEBE17032
:103AE0007047102BC4BF0020704703F5787CBCF1F1
:103AF000FF3F04D06FF0004282EA2100704770B5AA
:103B000000F016F94992248000207047F2E710F087
:103B1000004248BF4042B0FA80F310FA03F10AD0E5
:103B2000C3F11D0303F580634FEA415002EB0352DA
:103B300002EBD12170474FF000007047B0FA80F3DC
:103B400010FA03F10AD0C3F11D0303F580634FEAB5
:103B500041504FEA035202EBD12170474FF0000071
:103B60007047000051EA030C17D41CF5801F58BFA2
:103B7000BCF5801F00F10680994218BF704708BF4E
:103B80009042704707D711F5801F58BF13F5801F6B
:103B900019D499427047894270471CF5801F08D597
:103BA000BCF5801FF7D58B4218BF704708BF824213
:103BB00070474FF4001C1CEB410F38BF1CEB430F48
:103BC00001D28B42704770B500F0B2F892244900E0
:103BD0004FF000514FF08053FFF7CABDDFF848C1E6
:103BE00070B51CEA111E1EBF1CEA13159EEA0C0FCD
:103BF00095EA0C0F00F06F8081EA030423EA4C136E
:103C00004EEAD47E21EA4C1141F4801143F4801332
:103C1000AE44A1FB024CA0FB0365AEF17F7E3619DA
:103C200055EB0C05A1FB034C4CF10003A0FB021C5F
:103C300016EB0C06654153F10003094218BF46F02C
:103C4000010613F4007F0BD14FEA03314FEA053030
:103C5000340341EA155140EA16506FF003020AE0BE
:103C60004FEAC3214FEAC520F40241EA555140EA28
:103C700056506FF0020202EB2E4201EB025585EA2C
:103C8000CE710AD05FEA440C18BF24F0004450F112
:103C9000000041F1000120EAD47040F2FE7C624550
:103CA00000D270BDA84214BF4FF080444FF0404492
:103CB000002E08BF0024BEF1806FA8BFA1F1C04153
:103CC000BDE8704080F282804FF0000001F1C041F9
:103CD00001F0004170479EEA0C0F0CEA131518BF63
:103CE00095EA0C0F06D04FF0000081EA030E0EF0AB
:103CF000004170BD00F01CF88900013E00F007B8DB
:103D000000F009B84FEA430C5FEA5C5C08D081EA36
:103D1000030100F05BB84FEA410C5FEA5C5CF6D14E
:103D20004FF00000014970470000FF070000F87FD6
:103D30000EF1020E2EF0030E5EF8046B364205D42F
:103D4000012A43EB030515F5001F12D8012841EBAA
:103D5000010C1CF5001F0CD80ED14FEAD17C15F5D3
:103D6000001F0CEB4C0C0CF1020C08BF4CEBD37C8D
:103D700004E04FF0080C01E04FEAD37C0CEB4C055B
:103D800026FA05F606F00706B6F1040C06D20EEB8D
:103D9000860CBDE870404CF0010C6047DFE80CF089
:103DA000090B02024FF000414FF00000A1F5002185
:103DB00070BD19461046012851EB010418BFD4F517
:103DC000001484BF002001F0004170BD0808A0F578
:103DD00000114FEA3101704753EA010C17D41CF56A
:103DE000801F58BFBCF5801F00F106808B4218BFB2
:103DF000704708BF8242704707D713F5801F58BF2E
:103E000011F5801F19D48B4270479B4270471CF5F7
:103E1000801F08D5BCF5801FF7D5994218BF7047A1
:103E200008BF904270474FF4001C1CEB430F38BF93
:103E30001CEB410F01D2994270470FB40CBC03BC7C
:103E4000FFF7C1BE91EA030F10B581F000413FF5C5
:103E5000EFAB83F0004300F009B8000010B591EA21
:103E6000030F48BF83F000433FF5E2AB841A71EBC8
:103E7000030C07D212198CF0004C43EB0C03001B0F
:103E800061EB0C01DFF8A4E14FEA1154A4EB135CE1
:103E90001EEA430F18BF9EEA445F00F0B08023EA99
:103EA0006E03524221EA0451C3EB6E0338BF5B1E1E
:103EB000DCF1200E25D322FA0CFE10EB0E0043FAA3
:103EC0000CFE41EB0E01CCF1200E03FA0EFE10EBBE
:103ED0000E0051F10001CCF1200E29D412FA0EF29D
:103EE00001EB0451BDE8104058BF7047401C1CBF97
:103EF000B2F1004F704700280CBF491C20F00100B0
:103F0000704712EB020E43EB030218BF4FF0010E95
:103F10004EEA4202ACF1200CDCF11E0E54D943FAF9
:103F20000CFE10EB0E0051F1FF31CCF11E0ED5D579
:103F30000EF1010E12FA0EFE404141EB010101EBC0
:103F4000445C5FEA5C5C10D910EBDE7001EB04515D
:103F500038BFBEF1004FBDE8104018BF70470028C1
:103F60000CBF491C20F00100704730D24FEAD42C1E
:103F700011F5001124F400641BD0B1FA81F20B3A60
:103F8000A41AA41ED2F12003914030FA03F319437E
:103F9000904001EBCC71002C01EB0451BDE81040C6
:103FA000A8BF704701F1C0414FF0000001F000418F
:103FB0007047B0FA80F310FA03F100D110BDE41A93
:103FC000173C4805C90AE4E701EB045110BD49104C
:103FD00001EB0451BDE810404FEA300002E04FF021
:103FE000000170474A0008BF0042F8D0B2F5001F38
:103FF00028BF704701F000414FF0000070479EEA73
:10400000445F07D011EA5E0FBDE8104004BF0021F5
:1040100000207047BDE8104070B5FFF789FE00BF73
:1040200040DFF63E83F00041104670470000E0FF9D
:104030004FF04070E1EE100A7047FF2141EAD05086
:10404000C0057047000000000000000001020304EA
:104050000607080900000000010203047C40000874
:104060000000002038000000C4010008B44000082F
:104070003800002028100000E001000800000000C7
:104080000000000000000000000000000000000030
:104090000000000000000000000000000000000020
:1040A00000000000010000001000000000000000FF
:0440B0000024F400F4
:040000050800018965
:00000001FF
