:020000040800F2
:10000000F8070020290200087315000811140008E1
:10001000711500081F040008E51900080000000021
:10002000000000000000000000000000771500083C
:100030004D0400080000000075150008791500083F
:10004000430200084302000843020008430200087C
:10005000430200084302000843020008430200086C
:10006000430200084302000843020008430200085C
:10007000430200084302000843020008430200084C
:10008000430200084302000843020008430200083C
:10009000430200084302000843020008430200082C
:1000A000430200084302000843020008430200081C
:1000B000430200084302000843020008430200080C
:1000C00043020008430200084302000843020008FC
:1000D00043020008430200084302000843020008EC
:1000E00043020008430200084302000843020008DC
:1000F00043020008430200084302000843020008CC
:1001000043020008430200084302000843020008BB
:1001100043020008430200084302000843020008AB
:10012000430200084302000843020008430200089B
:10013000430200084302000843020008430200088B
:10014000430200084302000843020008430200087B
:10015000430200084302000843020008430200086B
:10016000430200084302000843020008430200085B
:100170004302000843020008430200080000000098
:10018000430200084302000800F002F800F03CF8C7
:100190000AA090E8000C82448344AAF10107DA45E2
:1001A00001D100F031F8AFF2090EBAE80F0013F0F8
:1001B000010F18BFFB1A43F0010318477821000014
:1001C00098210000103A24BF78C878C1FAD85207A5
:1001D00024BF30C830C144BF04680C6070470000C1
:1001E0000023002400250026103A28BF78C1FBD840
:1001F000520728BF30C148BF0B6070471FB502F0DF
:1002000087F81FBD10B510BD00F0CFF81146FFF7FD
:10021000F5FF01F0F9FB00F0EDF803B4FFF7F2FF92
:1002200003BC00F0F5F80000094880470948004782
:10023000FEE7FEE7FEE7FEE7FEE7FEE7FEE7FEE796
:10024000FEE7FEE704480549054A064B70470000F3
:100250001116000889010008F8010020F8070020A5
:10026000F8030020F803002053EA020C00F0698034
:100270002DE9F04B4FF00006002B1FBFB3FA83F5BA
:1002800003FA05F424FA05F65E4012BF1643B2FAEB
:1002900082F502FA05F4C5F120051EBF22FA05FC1D
:1002A00044EA0C04203556EA044C4FEA144418BFC3
:1002B000641C4FF000084FF00009904271EB030CF2
:1002C00039D3002919BFB1FA81F701FA07F6B0FA5C
:1002D00080F700FA07F6C7F120071EBF20FA07FCD7
:1002E00046EA0C062037B6FBF4FCA7EB0507103FE7
:1002F00007F01F0BCBF120060CFA0BFB2CFA06F6CD
:1003000044BFB3460026202FA4BF5E464FF0000B2B
:100310005BEA060C08BF4FF0010B19EB0B09ABFBB6
:10032000027C48EB0608C01B06FB02CC0BFB03CC8F
:1003300071EB0C01C1E70B46024641464846BDE859
:10034000F08B13B54FF000004FF00001AFF30080C9
:10035000BDE81C4070474FF0000200B513469446BC
:100360009646203922BFA0E80C50A0E80C50B1F10D
:100370002001BFF4F7AF090728BFA0E80C5048BF21
:100380000CC05DF804EB890028BF40F8042B08BFBF
:10039000704748BF20F8022B11F0804F18BF00F8BB
:1003A000012B7047704770477047754600F02CF876
:1003B000AE4605006946534620F00700854618B052
:1003C00020B5FFF73FFFBDE820404FF000064FF09B
:1003D00000074FF000084FF0000B21F00701AC467A
:1003E000ACE8C009ACE8C009ACE8C009ACE8C00999
:1003F0008D46704710B50446AFF300802046BDE837
:100400001040FFF70ABF0000004870479801002025
:1004100001491820ABBEFEE7260002007047FEE748
:1004200031B5084C656800F06DFB0749B0FBF1F091
:1004300000994143081A00916168491B8142FBD32E
:1004400038BD0000001000E040420F00704700007F
:1004500070B5044600F010F90546601C02D004484F
:100460000078044400F008F9401BA042FAD370BDA4
:10047000100000202DE9F84FDFF8BCA10022012573
:1004800003264FF00F090AF1040BAAF1040E00BF76
:100490000B6805FA02F42340A34270D10F7907F0EC
:1004A0000307012F01D0022F16D187684FEA4208B7
:1004B00006FA08FC27EA0C07D1F80CC00CFA08FC75
:1004C0004CEA070CC0F808C04768A7430C79C4F38E
:1004D000001494403C4344600C79E443A4070AD0E0
:1004E000C4684FEA420C06FA0CF7BC438F6807FA5F
:1004F0000CF72743C7600C7904F00304022C12D1D7
:10050000D40800EB840CDCF820405707FF0E09FAF2
:1005100007F824EA0804D1F8108008FA07F848EA36
:100520000408CCF8208004684FEA420C06FA0CF765
:10053000BC430F7907F0030707FA0CF7274307605E
:100540004C6814F4403F70D03C4C276847F4804717
:100550002760246822F0030704F480440094384C98
:1005600007EB040CDCF8084897074FEA177809FAFC
:1005700008F7BC43334FB84202D1002724E054E0CF
:10058000314FB84201D101271EE0304FB84201D1AE
:10059000022719E02E4FB84201D1032714E02D4F56
:1005A000B84201D104270FE02B4FB84201D10527F3
:1005B0000AE02A4FB84201D1062705E0284FB84289
:1005C00001D1072700E0082707FA08F72743CCF8EE
:1005D0000878DAF800405746D1F804C09C435FEA37
:1005E000CC2C00D51C433C60DBF800405F46D1F8C2
:1005F00004C09C435FEA8C2C00D51C433C60DEF8B1
:1006000000407746D1F804C09C435FEA8C3C00D59B
:100610001C433C60084F083F3C68D1F804C09C4331
:100620005FEACC3C00D51C433C60521C102AFFF40E
:100630002FAFBDE8F88F0000083C0140443802406D
:100640000030014000000240000402400008024067
:10065000000C02400010024000140240001802404A
:10066000001C02400069084000D0012070470AB118
:10067000816170470904FBE701488068704700000A
:100680001000002070B5040025D094F83D0000252E
:1006900020B984F83C50204600F0B8F8242084F8B3
:1006A0003D002068016821F00101016020680168B7
:1006B00041F4004101602068016821F400410160BB
:1006C00000F026FA4D4A6168914201D84C4900E099
:1006D0004C49884201D2012070BD4B492368B0FBD0
:1006E000F1F15E6826F03F060E435E606368934258
:1006F00006D94FF4967359434FF47A73B1FBF3F173
:100700002368491C1E6A26F03F063143196261685E
:10071000914210D84900401EB0FBF1F2521CC2F3C6
:100720000B02042A01D2042022E0B0FBF1F0401CAD
:10073000C0F30B001CE0A268F2B301EBC10303EBB2
:100740000116431EB3FBF6F35B1C43F480431B0509
:1007500049D092B301EBC10202EB0111401EB0FB84
:10076000F1F0401CC0F30B0040F4804040F4004026
:100770002168CA694CF6FF739A431043C861D4E9F3
:10078000071001432068026822F0C0021143016093
:10079000D4E9030101432068826848F2FF339A4399
:1007A00011438160D4E9050108432168CA6822F039
:1007B000FF021043C86001E00EE016E02068016807
:1007C00041F0010101602564202084F83D0025638B
:1007D00084F83E50002070BD01EB4106431EB3FB80
:1007E000F6F35B1CB3E70120C2E701EB4101401EB9
:1007F000B0FBF1F0401CC0F30B00B7E7A08601008E
:1008000080841E0000093D0040420F00F0B587B013
:10081000044614216846FFF79EFD2768234CDFF845
:1008200088C00022214912230325042620481034C1
:10083000674518D10F6847F002070F60096802AFDB
:1008400001F002010591C021CDE9001387E86400A1
:100850006946FFF70FFE206840F400102060206812
:1008600000F400101CE0DFF84CC0674519D10F6898
:1008700047F002070F60096802AF01F0020105911D
:100880004FF44061CDE9001387E864006946FFF743
:10089000F1FD206840F480002060206800F48000B2
:1008A000059007B0F0BD0000005400403038024011
:1008B0000004024000580040024881680278114458
:1008C00081607047100000200B4810B5016841F4AA
:1008D00000710160016841F480610160016841F4C8
:1008E00080710160032000F061F80F2000F006F82D
:1008F00000F024F8002010BD003C024070B50D4D02
:1009000004464FF47A712878B1FBF0F00A4909687F
:10091000B1FBF0F000F004FB48B9102C07D2002224
:100920002146501E00F022F800206C6070BD0120AE
:1009300070BD0000100000201C0000200A4808B50F
:10094000016841F480410160006800F4804000903B
:100950000548001F016841F080510160006800F007
:100960008050009008BD000044380240F0B40E4BA7
:100970001B680C46C3F30223C3F10705042D00D9FD
:100980000425191D072901D2002300E0DB1E0126E2
:1009900006FA05F1491E214099409E40761E1640F8
:1009A0003143F0BC01F01FB80CED00E0064900F047
:1009B000070208684FF6FF03184040EA0220034A86
:1009C00010430860704700000CED00E00000FA05DD
:1009D0002DE9F0470E46050065D0DFF81481D8F800
:1009E0000000F7B200F00700B04207D288F80070AC
:1009F000D8F8000000F00700B04254D128683D4C00
:100A0000810712D5400703D5206840F4E0502060EC
:100A10002878000703D5206840F4604020602068F3
:100A2000A96820F0F000084320602878C0072DD086
:100A3000304968680839012812D0022813D00328E9
:100A400011D00968890700292DDA216821F00301F6
:100A500001432160FFF710FE814641F2883A0EE023
:100A600009688903EFE709688901ECE7FFF704FEED
:100A7000A0EB0901514502D90320BDE8F0872068A9
:100A8000696800F00C00B0EB810FEFD1D8F80010CE
:100A9000404601F00701B14207D90770006800F035
:100AA0000700B04201D00120E7E72878400705D5CC
:100AB0002068E96820F4E0500843206028780007A7
:100AC00006D52068296920F4604040EAC100206012
:100AD00000F03EF82168084AC1F30311515CC84098
:100AE0000649086006480068FFF708FF0020C4E7D1
:100AF000003C0240083802401A2300081C00002075
:100B00001400002001480068704700001C0000200D
:100B10000448054900680968044AC1F38221515C10
:100B2000C84070471C000020083802402A230008F3
:100B30000448054900680968044AC1F34231515C20
:100B4000C84070471C000020083802402A230008D3
:100B5000154810B5006810F00C02144813D0144961
:100B6000042A0FD0082A0ED10F4C241F22682368B4
:100B700002F03F025B0207D52068C0F38810A0FB9B
:100B8000010106E0084610BD2168C1F38811A1FBF0
:100B900000010023FFF768FB2168C1F30141491CF4
:100BA0004900B0FBF1F010BD083802400024F40009
:100BB00040787D012DE9F84F04006ED02078DFF8F1
:100BC0004C93C007A9F104054AD009F1040001685B
:100BD000C1F38101012908D00068C0F38100022817
:100BE0000AD1D9F80000400206D52868800337D51D
:100BF00060680028E1D033E06068B0F5803F10D035
:100C0000B0F5A02F286810D020F480302860286824
:100C100020F4802028606068A8B1FFF72DFD06460B
:100C20000DE0286840F48030F4E740F4802028602C
:100C3000F7E700BFFFF720FD801B642873D8286802
:100C40008003F7D50CE0FFF717FD064605E000BF6F
:100C5000FFF712FD801B6428F0D828688003F7D4C2
:100C60002078DFF8AC8280074FF0000A3ED5A74815
:100C7000001D016811F00C0F08D00068C0F381005E
:100C800002280BD1D9F80000400207D42868800759
:100C900016D5E068012800D112E033E1E068B8B170
:100CA0000120C8F80000FFF7E7FC064605E000BF9A
:100CB000FFF7E2FC801B0228C0D828688007F7D520
:100CC0002868216920F0F80040EAC10028600DE0A2
:100CD000C8F800A0FFF7D0FC064604E0FFF7CCFC04
:100CE000801B02281FD828688007F7D420780007C7
:100CF00022D5864F87486169703771B10121016043
:100D0000FFF7BAFC064604E0FFF7B6FC801B02289A
:100D100009D838688007F7D50EE0C0F800A0FFF7C3
:100D2000ABFC064605E082E0FFF7A6FC801B02282C
:100D30007DD838688007F7D42078400768D5DFF879
:100D4000CCB100270BF13C0BDBF80000C0000BD44A
:100D5000DBF8001041F08051CBF80010DBF8000008
:100D6000012700F0805000906B4E3068C00510D411
:100D7000306840F480703060FFF77EFC009005E042
:100D8000FFF77AFC0099401A022850D83068C00555
:100D9000F6D55E4EA0686C3601280FD00528306865
:100DA00010D020F001003060306820F00400306086
:100DB000A068B8B1FFF760FC00900FE0306840F029
:100DC0000100F4E740F004003060F7E7FFF754FC5F
:100DD0000099411A41F28830814266D83068800714
:100DE000F4D50EE0FFF748FC009007E0FFF744FC65
:100DF0000099411A41F28830814256D83068800704
:100E0000F4D42FB1DBF8001021F08051CBF80010A2
:100E1000A069C8B33D49091D0968C1F381010229D0
:100E20004AD00228504607D0C8F8600000E03CE0F5
:100E3000FFF722FC04463BE04746C8F86000FFF796
:100E40001BFC064605E000BFFFF716FC801B0228CE
:100E50002BD828688001F7D4D4E907010843A16A98
:100E60002E4A490802EB0141626A41EA82110843B5
:100E700094F82C1040EA0161C9F80010012038668E
:100E8000FFF7FAFB044606E03EE000BFFFF7F4FB85
:100E9000001B022809D828688001F7D534E000BF7C
:100EA000FFF7EAFB001B022802D90320BDE8F88FF8
:100EB00028688001F4D427E00128F7D0D9F8000091
:100EC000E26900F4800191421CD1226A00F03F01E6
:100ED000914217D147F6C071626A0140B1EB821F9F
:100EE00010D1A26A4FF0FF3300F4403103EB5202FD
:100EF000B1EB024F06D194F82C1000F07060B0EB0B
:100F0000016F01D00120D1E70020CFE70438024073
:100F100000004742800E4742007000400000FFFF83
:100F200010B5401EB0F1807F01D3012010BD4FF0FD
:100F3000E02460610F21601700F055FD0020A061E2
:100F400007202061002010BD10B590F83C20012A38
:100F500022D0012280F83C20CA688C6822F44072BA
:100F600022434C6822F4806222430C6822F400621F
:100F700022430C6922F4805222434C6922F400522D
:100F80002243C969002322F480420A4301684A646B
:100F900080F83C30002010BD022010BD70B590F8E4
:100FA0003C20012A32D0012480F83C40022280F803
:100FB0003D2003685A689D6822F070060A68324333
:100FC0005A60134B02689A4214D0B2F1804F11D08C
:100FD000104B9A420ED0104B9A420BD00F4B9A42B4
:100FE00008D00F4B9A4205D00E4B9A4202D00E4BBE
:100FF0009A4204D1496825F080031943916080F832
:101000003D40002180F83C10084670BD022070BDB4
:10101000000001400004004000080040000C0040B7
:1010200000040140004001400018004010B50400D9
:1010300003D094F83D0010B107E0012010BD00205E
:1010400084F83C00204600F01FF8022084F83D00A0
:10105000211D206800F0E4FA012084F8460084F89D
:101060003E0084F83F0084F8400084F8410084F892
:10107000420084F8430084F8440084F8450084F872
:101080003D00002010BD000008B5006806498842F8
:1010900008D10648016841F001010160006800F0D4
:1010A0000100009008BD00000000014044380240EB
:1010B00070B5044690F83C000025012817D00126A1
:1010C00084F83C60022084F83D002068826822F0A9
:1010D000770222F47F4282600868502838D00DDC05
:1010E00020284FD005DC90B3102811D14AE002200F
:1010F00070BD302846D040280AD13BE060282FD070
:1011000070280DD0B0F5805F03D0B0F5005F12D02D
:10111000012584F83D60002084F83C00284670BD1D
:10112000CB68D1E90121206800F0DEFA20688168EF
:1011300041F0770109E0CB68D1E90121206800F096
:10114000D3FA2068816841F480418160E1E719E0C9
:10115000CA684968206800F09BFB5021206806E0BF
:10116000CA684968206800F0A4FB6021206800F08C
:10117000C5FACEE7CA684968206800F089FB4021BB
:101180002068F4E7226801461046F0E710B586B003
:10119000044614216846FFF7DEF80E4920688842AD
:1011A00016D10D480021026842F01002026000686A
:1011B00000F0100005904FF4007000900220CDE97F
:1011C00001010120CDE9031069460448FFF752F9F7
:1011D00006B010BD0000014030380240001002404F
:1011E00070B5044690F83C0000260D4601280FD04B
:1011F000012084F83C006AB1042A1DD0082A2FD0AF
:101200000C2A3FD00126002084F83C00304670BDF7
:10121000022070BD206800F079FA2068816941F0F1
:10122000080181612068816921F0040181612068E1
:1012300081692A69114311E0206800F097FA20685B
:10124000816941F4006181612068816921F48061D4
:101250008161206881692A6941EA02218161D2E7BE
:10126000206800F0B9FA2068C16941F00801C16145
:101270002068C16921F00401C1612068C1692A693F
:10128000114311E0206800F0DBFA2068C16941F4E5
:101290000061C1612068C16921F48061C161206879
:1012A000C1692A6941EA0221C161ACE710B50400B5
:1012B00003D094F83D0010B107E0012010BD0020DC
:1012C00084F83C00204600F01EF8022084F83D001F
:1012D000211D206800F0A4F9012084F8460084F85C
:1012E0003E0084F83F0084F8400084F8410084F810
:1012F000420084F8430084F8440084F8450084F8F0
:101300003D00002010BD704770B5040004D094F873
:101310003D00002510B106E0012070BD84F83C506E
:10132000204600F023F8242084F83D002068C1689E
:1013300021F40051C160204600F0CEFA2068016916
:1013400021F4904101612068416921F02A01416145
:101350002068C16841F40051C1602564202084F8F0
:101360003D0084F83E00002070BD0000F0B587B05D
:10137000044614216846FEF7EEFF21481F4F2668F9
:1013800000221F491038022303240725BE4215D12D
:101390000E6846F400360E60096801F400310591CC
:1013A000016841F0010101600068694600F0010038
:1013B00005900C20CDE90003124818E0124FBE4200
:1013C0001AD10E6846F480260E60096801F4802167
:1013D0000591016841F0080101600068694600F06C
:1013E000080005904FF44070CDE90003074802AEB5
:1013F00086E83400FFF73EF807B0F0BD0044004037
:10140000403802400000024000480040000C02400A
:10141000FEE7000070B586B014216846FEF79BFF1A
:101420001E480024016841F080010160016801F05C
:1014300080010591016841F001010160016801F03E
:1014400001010591016841F010010160016801F09E
:1014500010010591016841F002010160016801F08D
:1014600002010591016841F00801016000680C4E1D
:1014700000F008004FF480550590002229463046C0
:10148000FFF7F5F801200095CDE9010469463046E3
:101490000394FEF7EFFF06B070BD00003038024045
:1014A000000C024010B596B000240F9410941194D3
:1014B000129413941C2108A81494FEF74CFF2021C9
:1014C0006846FEF748FF29482749016044F29F110A
:1014D000C0E9011440F21971C0E903144461846148
:1014E000FFF7A4FD08B172B6FEE74FF480500F90ED
:1014F0000FA91E48FFF7DCFD08B172B6FEE71B48D6
:10150000FFF7D4FE08B172B6FEE7139413A917488B
:101510001494FFF743FD08B172B6FEE76020CDE9F1
:1015200008040A940B940C940D94002208A90F4807
:101530000E94FFF755FE08B172B6FEE700944FF423
:101540000050CDE904400294019403946946074891
:101550000794FFF7F9FC08B172B6FEE70348FFF7FE
:1015600015FE16B010BD000000000140C8000020AC
:10157000FEE7FEE770477047FFF79EB930B593B0BE
:1015800030216846FEF7E7FE14210CA8FEF7E3FEC3
:101590001D480025016841F080510160006800F09D
:1015A000805011901948016841F480410160006841
:1015B000022400F480401190012003901020049038
:1015C000009406940820CDE90750A820CDE909042D
:1015D00004200B906846FFF7EDFA08B172B6FEE7FB
:1015E0000CA90F2081E831004FF4A0500F904FF468
:1015F0008050109005210CA8FFF7EAF9002801D0CF
:1016000072B6FEE713B030BD4038024000700040B3
:101610000248016841F470010160704788ED00E004
:10162000F0B50268254C264D264E274F274B4FF02C
:10163000804CA04209D0604507D0A84205D0B042F6
:1016400003D0B84201D0984204D122F0700E4A680B
:1016500042EA0E02A0421BD0604519D0A84217D022
:10166000B04215D0B84213D0984211D0184DA842BC
:101670000ED0184DA8420BD0174DA84208D0174DD8
:10168000A84205D0164DA84202D0164DA84203D15B
:1016900022F44075CA682A434D6922F080022A4329
:1016A00002608A68C2620A688262A04201D09842DF
:1016B00001D10969016301214161F0BD00000140D0
:1016C0000004004000080040000C004000040140FD
:1016D0000040014000440140004801400018004023
:1016E000001C00400020004010B5846842EA03223C
:1016F00024F47F440A432243826010BD826822F0B2
:1017000070020A4342F0070181607047F0B5026A37
:1017100022F001020262036A42688469124E24F0D8
:1017200073050C682C4323F002058B682B430D4D89
:10173000A84201D0B04205D123F00807CB683B4353
:1017400023F00403A84201D0B04205D14D6922F430
:10175000407215438A692A43426084614968416343
:101760000362F0BD0000014000040140F0B5026AD0
:1017700022F010020262026A436884690D6824F450
:10178000E64444EA05248D6822F0200242EA05126C
:101790000F4D104EA84201D0B04206D1CF6822F0C2
:1017A000800242EA071222F04002A84201D0B04271
:1017B00007D14D6923F4406343EA85038D6943EA09
:1017C000850343608461496881630262F0BD000063
:1017D0000000014000040140F0B5026A22F480726A
:1017E0000262026A4368C46922F4007224F073053D
:1017F0000C68124E2C438D6842EA05220E4DA84219
:1018000001D0B04206D1CF6822F4006242EA07223A
:1018100022F48062A84201D0B04207D14D6923F47E
:10182000405343EA05138D6943EA05134360C461DD
:101830004968C1630262F0BD00000140000401403C
:1018400030B5026A22F480520262046A4268C369B7
:101850000D6823F4E64343EA05238D6824F400541D
:1018600044EA0534084DA84202D0084DA84204D1EC
:101870004D6922F4804242EA85124260C3614968A0
:101880000164046230BD000000000140000401401A
:1018900010B5036A046A24F001040462846924F028
:1018A000F00444EA021423F00A020A43846102624B
:1018B00010BD10B5036A23F0100303628369046A44
:1018C00023F4704343EA023224F0A00343EA0111F7
:1018D0008261016210BD000070B5044600680169B4
:1018E000E26821F44051114301612169A068E26975
:1018F00008436169114308432168CA6849F20C63CF
:101900009A430243CA6020684169A26921F4407188
:101910001143416131492068884202D030498842F0
:1019200002D1FFF705F901E0FFF7F2F8E2690023C1
:10193000192164253226B2F5004F626828D0A0FB39
:101940000101930F9200FEF78FFC0146B0FBF5F00A
:101950006FF01802504301EB800006EB0010B0FB63
:10196000F5F000F0F002B1FBF5F002EB0012B1FB74
:10197000F5F06FF01803584301EB800006EB001000
:10198000B0FBF5F000F00F0021681044886070BDD6
:10199000A0FB010192185B41FEF766FC0146B0FB1B
:1019A000F5F00201B1FBF5F06FF01803584301EBBD
:1019B000800006EBC000B0FBF5F000F0F80002EB91
:1019C0004002B1FBF5F0584301EB800006EBC0008C
:1019D000B0FBF5F000F00700D6E700000010014072
:1019E00000140140FEE70907090E002804DB00F19E
:1019F000E02080F80014704700F00F0000F1E020B4
:101A000080F8141D70470000FEF75EFFFFF7B6FD7B
:101A1000FFF700FD2D482C492D4E00240160C0E940
:101A200001640D14C0E9034544618461C46104622A
:101A3000FEF728FE08B172B6FEE724482549543067
:101A40000160C0E90164C0E9034544618461C46187
:101A50000462FEF717FE08B172B6FEE7FFF722FD3B
:101A60001A481D49F0304FF4E1350160C0E90154D6
:101A70000C26C460C0E904468461C461FFF744FCDD
:101A800008B172B6FEE7164814490160C0E9015476
:101A9000C460C0E904468461C461FFF735FC08B145
:101AA00072B6FEE70F484FF48071A0F10804818000
:101AB0000D4901600A20FEF7CBFCD4E9020100F0D9
:101AC00015F884ED000BF5E70054004020000020DD
:101AD000A08601000058004000440040004800403B
:101AE000540100200800002000040240F0B58EB22E
:101AF0002DED068B85B0044600229FED32AB3146BA
:101B0000FEF7B5FD14216846FEF725FC01200025EF
:101B10000096CDE90105204669460395FEF7AAFC2B
:101B2000204601223146FEF7A2FD0520FEF778FC93
:101B3000204600223146FEF79AFD40F2EE20FEF7E5
:101B40006FFC02200096CDE9015020466946FEF761
:101B500091FC44F6440720463146FEF783FD60B110
:101B600053EC1A2B51EC180B00F040FA12D1284616
:101B700000F078FA41EC180B0CE020463146FEF7F5
:101B800071FD38B9732D05DD284600F06BFA41EC84
:101B9000190B05E00120FEF743FC6D1CBD42DADBAA
:101BA00053EC182B51EC190B00F0C8FA9FED071BF2
:101BB00053EC112B00F0C2F805B041EC100BBDEC5A
:101BC000068BF0BD000000000000000000000000D7
:101BD00000005F4010B591EA030F48BF83F0004357
:101BE00000F1B482841A71EB030C05D2121943EB95
:101BF0000C03001B61EB0C01DFF824E14FEA1154E8
:101C0000A4EB135C1EEA430F18BF9EEA445F73D037
:101C100023EA0E03DCF1200E21EA045143F4801381
:101C200032D322FA0CFE10EB0E0023FA0CFE41EB2D
:101C30000E01CCF1200E03FA0EFE10EB0E0051F156
:101C40000001B1F5801FCCF1200E32D201EB04511E
:101C500012FA0EF2BDE8104058BF7047401C38BF62
:101C60005FEA420218BF7047002814BF20F001004D
:101C700041F100014FEA410313F5001F38BF7047DF
:101C8000A1F1C04100F053BA012A43EB0302ACF1C9
:101C9000200CDCF11F0E32BF4FF0000E23FA0CF3C4
:101CA00010EB030041EB0451B4EB115FD0D0A1EB7A
:101CB000045101F5801149085FEA300001EB04513D
:101CC0000ED350F1000038BF12FA0EFE08D1BDE865
:101CD0001040C9E7401C38BF5FEA4202CAD1C3E7DF
:101CE000BDE810404FEA410313F5001F38BF7047AD
:101CF000A1F1C04100F01BBA9EEA445F08D011EA8E
:101D00005E0FBDE8104004BF01F0004100207047A5
:101D1000BDE8104070B500F0BCF900BF64FBBE3EEA
:101D20000000E0FF491058BFC1F140415B1058BFAF
:101D3000C3F140438B42EFF3008070472DE9C0416F
:101D400030B4DFF8A0C23CEA111418BF3CEA131407
:101D500000F0EC8081EA03051CEA111444EAD57412
:101D600018BF1CEA131500F0C780A4EB05044FF060
:101D7000004545EAC12145EAC32341EA505143EAFF
:101D8000525304F17F74994204F500344FEAC020A5
:101D90004FEAC22208BF904200F09C804FEA1365D0
:101DA0000FF24016765D4FEA134506FB05F7C7F1C3
:101DB000807706FB07F74FEAD737A7FB0368764221
:101DC000C8F58038A7FB06CE38BFA8F1010807FB8D
:101DD00008E64FF0000EA6FB028CE6FB03CEDCF11A
:101DE000000CCEF1004E38BFAEF1010EA6FB0C5830
:101DF0004FF000074FF00005E6FB0E87A1FB08C679
:101E0000A0FB07CE16EB0E0645F10005E1FB0765CA
:101E100015F1E04E7EBFA4F580345FEA46066D41C1
:101E200016F1800745F100054FEA17274FEA0666CD
:101E300047EA0567A6F1DE46B6F1805F4FEA152551
:101E40001FD9384624F0010C05EBC471BCF1FE6FBC
:101E500001EB0C1102D8F0BCBDE8008124425CBF4C
:101E600001F5801E9EEAC47F02D4F0BCBDE800816B
:101E7000244238D4F0BCA1F1C041BDE8004100F0DB
:101E800056B94FEAD22242EA43524FEAD323A7FB84
:101E900002864FEAD02040EA415007FB03661EEA63
:101EA0000E0F4FEAD12105FB026658BFA6EB005684
:101EB000B6EB00564FEA520E4EEAC37E18EB0E0EFA
:101EC00056EB530EBDD518EB02085E417F1C55F151
:101ED0000005B6E74FF480154FF000074FF00006FD
:101EE0004FF00008ADE7F0BC4FF0000001F1C04139
:101EF00001F00041BDE8008111EA0C1F0CEA131546
:101F000000D00CE013EA0C1F00F025804FF0000019
:101F1000F0BC81EA030101F00041BDE80081F0BCA2
:101F2000BDE8004181EA030100F001B9F0BCBDE861
:101F3000004170B500F0ADF8097EFC3E00F007B836
:101F400081EA03014FF0000001F00041704781EA8F
:101F5000030100F0ECB8F0BCBDE800414FF0000018
:101F600021497047FFFDFBF9F7F5F4F2F0EEEDEBD8
:101F7000E9E8E6E4E3E1E0DEDDDBDAD8D7D5D4D387
:101F8000D1D0CFCDCCCBCAC8C7C6C5C4C2C1C0BFD3
:101F9000BEBDBCBBBAB9B8B7B6B5B4B3B2B1B0AFD9
:101FA000AEADACABAAA9A8A8A7A6A5A4A3A3A2A1BD
:101FB000A09F9F9E9D9C9C9B9A9999989797969578
:101FC00095949393929191908F8F8E8E8D8C8C8B14
:101FD0008B8A89898888878786858584848383829C
:101FE000828181800000FF070000F87F51EA030C26
:101FF00017D41CF5801F58BFBCF5801F00F1068068
:10200000994218BF704708BF9042704707D711F533
:10201000801F58BF13F5801F19D499427047894219
:1020200070471CF5801F08D5BCF5801FF7D58B4283
:1020300018BF704708BF824270474FF4001C1CEB6A
:10204000410F38BF1CEB430F01D28B42704770B574
:1020500000F01FF8922449004FF000514FF08053D8
:10206000FFF760BE10F0004248BF4042B0FA80F374
:1020700010FA03F10AD0C3F11D0303F580634FEAA0
:10208000415002EB035202EBD12170474FF00000A8
:1020900070470EF1020E2EF0030E5EF8046B36420E
:1020A00005D4012A43EB030515F5001F12D80128BA
:1020B00041EB010C1CF5001F0CD80ED14FEAD17C6E
:1020C00015F5001F0CEB4C0C0CF1020C08BF4CEB8F
:1020D000D37C04E04FF0080C01E04FEAD37C0CEB1A
:1020E0004C0526FA05F606F00706B6F1040C06D2F2
:1020F0000EEB860CBDE870404CF0010C6047DFE849
:102100000CF0090B02024FF000414FF00000A1F566
:10211000002170BD19461046012851EB010418BF7B
:10212000D4F5001484BF002001F0004170BD080800
:10213000A0F500114FEA31017047000010B591EA97
:10214000030F48BF83F000433FF54CAD841A71EB99
:10215000030C07D212198CF0004C43EB0C03001B4C
:1021600061EB0C01DFF8A4E14FEA1154A4EB135C1E
:102170001EEA430F18BF9EEA445F00F0B08023EAD6
:102180006E03524221EA0451C3EB6E0338BF5B1E5B
:10219000DCF1200E25D322FA0CFE10EB0E0043FAE0
:1021A0000CFE41EB0E01CCF1200E03FA0EFE10EBFB
:1021B0000E0051F10001CCF1200E29D412FA0EF2DA
:1021C00001EB0451BDE8104058BF7047401C1CBFD4
:1021D000B2F1004F704700280CBF491C20F00100ED
:1021E000704712EB020E43EB030218BF4FF0010ED3
:1021F0004EEA4202ACF1200CDCF11E0E54D943FA37
:102200000CFE10EB0E0051F1FF31CCF11E0ED5D5B6
:102210000EF1010E12FA0EFE404141EB010101EBFD
:10222000445C5FEA5C5C10D910EBDE7001EB04519A
:1022300038BFBEF1004FBDE8104018BF70470028FE
:102240000CBF491C20F00100704730D24FEAD42C5B
:1022500011F5001124F400641BD0B1FA81F20B3A9D
:10226000A41AA41ED2F12003914030FA03F31943BB
:10227000904001EBCC71002C01EB0451BDE8104003
:10228000A8BF704701F1C0414FF0000001F00041CC
:102290007047B0FA80F310FA03F100D110BDE41AD0
:1022A000173C4805C90AE4E701EB045110BD491089
:1022B00001EB0451BDE810404FEA300002E04FF05E
:1022C000000170474A0008BF0042F8D0B2F5001F75
:1022D00028BF704701F000414FF0000070479EEAB0
:1022E000445F07D011EA5E0FBDE8104004BF002133
:1022F00000207047BDE8104070B5FFF7CAFE00BF70
:1023000040DFF63E83F00041104670470000E0FFDA
:102310004FF04070E1EE100A70470000000000002E
:102320000000010203040607080900000000010282
:1023300003040000542300080000002020000000D7
:10234000C40100087423000820000020D807000002
:10235000E001000800000000000000000000000094
:10236000000000000100000010000000000000005C
:042370000024F40051
:040000050800018965
:00000001FF
