:020000040800F2
:10000000F809002029020008CF1D0008BD180008CB
:10001000CD1D0008830400084122000800000000F4
:10002000000000000000000000000000D31D0008D8
:100030008504000800000000D11D0008D51D00083F
:10004000430200084302000843020008430200087C
:10005000430200084302000843020008430200086C
:10006000430200084302000843020008430200085C
:10007000430200084302000843020008430200084C
:10008000430200084302000843020008430200083C
:10009000430200084302000843020008430200082C
:1000A000430200084302000843020008430200081C
:1000B000430200084302000843020008430200080C
:1000C00043020008430200084302000843020008FC
:1000D00043020008430200084302000843020008EC
:1000E00043020008430200084302000843020008DC
:1000F00043020008430200084302000843020008CC
:1001000043020008430200084302000843020008BB
:1001100043020008430200084302000843020008AB
:10012000430200084302000843020008430200089B
:10013000430200084302000843020008430200088B
:10014000430200084302000843020008430200087B
:10015000430200084302000843020008430200086B
:10016000430200084302000843020008430200085B
:100170004302000843020008430200080000000098
:10018000430200084302000800F002F800F03CF8C7
:100190000AA090E8000C82448344AAF10107DA45E2
:1001A00001D100F031F8AFF2090EBAE80F0013F0F8
:1001B000010F18BFFB1A43F001031847C0260000C7
:1001C000E0260000103A24BF78C878C1FAD8520758
:1001D00024BF30C830C144BF04680C6070470000C1
:1001E0000023002400250026103A28BF78C1FBD840
:1001F000520728BF30C148BF0B6070471FB502F0DF
:100200002BFB1FBD10B510BD00F001F91146FFF723
:10021000F5FF02F005F900F01FF903B4FFF7F2FF54
:1002200003BC00F027F9000009488047094800474F
:10023000FEE7FEE7FEE7FEE7FEE7FEE7FEE7FEE796
:10024000FEE7FEE704480549054A064B70470000F3
:100250006D1E000889010008F8030020F80900203D
:10026000F8050020F805002053EA020C00F0698030
:100270002DE9F04B4FF00006002B1FBFB3FA83F5BA
:1002800003FA05F424FA05F65E4012BF1643B2FAEB
:1002900082F502FA05F4C5F120051EBF22FA05FC1D
:1002A00044EA0C04203556EA044C4FEA144418BFC3
:1002B000641C4FF000084FF00009904271EB030CF2
:1002C00039D3002919BFB1FA81F701FA07F6B0FA5C
:1002D00080F700FA07F6C7F120071EBF20FA07FCD7
:1002E00046EA0C062037B6FBF4FCA7EB0507103FE7
:1002F00007F01F0BCBF120060CFA0BFB2CFA06F6CD
:1003000044BFB3460026202FA4BF5E464FF0000B2B
:100310005BEA060C08BF4FF0010B19EB0B09ABFBB6
:10032000027C48EB0608C01B06FB02CC0BFB03CC8F
:1003300071EB0C01C1E70B46024641464846BDE859
:10034000F08B13B54FF000004FF00001AFF30080C9
:10035000BDE81C40704710B5203AC0F00B80B1E8F2
:100360001850203AA0E81850B1E81850A0E81850EA
:10037000BFF4F5AF5FEA027C24BFB1E81850A0E8F3
:10038000185044BF18C918C0BDE810405FEA827C0D
:1003900024BF51F8043B40F8043B08BF7047D20724
:1003A00028BF31F8023B48BF11F8012B28BF20F8C5
:1003B000023B48BF00F8012B70474FF0000200B528
:1003C000134694469646203922BFA0E80C50A0E878
:1003D0000C50B1F12001BFF4F7AF090728BFA0E826
:1003E0000C5048BF0CC05DF804EB890028BF40F8F2
:1003F000042B08BF704748BF20F8022B11F0804F34
:1004000018BF00F8012B704770477047704775465A
:1004100000F02CF8AE4605006946534620F0070070
:10042000854618B020B5FFF70DFFBDE820404FF01E
:1004300000064FF000074FF000084FF0000B21F0CE
:100440000701AC46ACE8C009ACE8C009ACE8C0099B
:10045000ACE8C0098D46704710B50446AFF3008084
:100460002046BDE81040FFF7D8BE000000487047A6
:100470009803002001491820ABBEFEE726000200C9
:100480007047FEE77047000070B5044600F014F9AD
:100490000546601C02D004480078044400F00CF9C2
:1004A000401BA042FAD370BD0C0000202DE9F84F8C
:1004B000DFF8BCA10022012503264FF00F090AF145
:1004C000040BAAF1040E00BF0B6805FA02F42340E6
:1004D000A34270D10F7907F00307012F01D0022F3B
:1004E00016D187684FEA420806FA08FC27EA0C078B
:1004F000D1F80CC00CFA08FC4CEA070CC0F808C094
:100500004768A7430C79C4F3001494403C4344600B
:100510000C79E443A4070AD0C4684FEA420C06FAF7
:100520000CF7BC438F6807FA0CF72743C7600C79B8
:1005300004F00304022C12D1D40800EB840CDCF884
:1005400020405707FF0E09FA07F824EA0804D1F8FB
:10055000108008FA07F848EA0408CCF820800468FC
:100560004FEA420C06FA0CF7BC430F7907F0030779
:1005700007FA0CF7274307604C6814F4403F70D02B
:100580003C4C276847F480472760246822F0030723
:1005900004F480440094384C07EB040CDCF8084861
:1005A00097074FEA177809FA08F7BC43334FB84268
:1005B00002D1002724E054E0314FB84201D1012795
:1005C0001EE0304FB84201D1022719E02E4FB84249
:1005D00001D1032714E02D4FB84201D104270FE0C9
:1005E0002B4FB84201D105270AE02A4FB84201D16A
:1005F000062705E0284FB84201D1072700E0082769
:1006000007FA08F72743CCF80878DAF8004057468D
:10061000D1F804C09C435FEACC2C00D51C433C605D
:10062000DBF800405F46D1F804C09C435FEA8C2CA5
:1006300000D51C433C60DEF800407746D1F804C08A
:100640009C435FEA8C3C00D51C433C60084F083F4C
:100650003C68D1F804C09C435FEACC3C00D51C4305
:100660003C60521C102AFFF42FAFBDE8F88F000049
:10067000083C014044380240003001400000024084
:100680000004024000080240000C0240001002403A
:100690000014024000180240001C0240426921EA96
:1006A00002030A4043EA0241816170470AB1816155
:1006B00070470904FBE700000148806870470000AC
:1006C0000C00002070B5040025D094F83D000025F2
:1006D00020B984F83C50204600F0F4FA242084F835
:1006E0003D002068016821F0010101602068016877
:1006F00041F4004101602068016821F4004101607B
:1007000000F05CFC4D4A6168914201D84C4900E020
:100710004C49884201D2012070BD4B492368B0FB8F
:10072000F1F15E6826F03F060E435E606368934217
:1007300006D94FF4967359434FF47A73B1FBF3F132
:100740002368491C1E6A26F03F063143196261681E
:10075000914210D84900401EB0FBF1F2521CC2F386
:100760000B02042A01D2042022E0B0FBF1F0401C6D
:10077000C0F30B001CE0A268F2B301EBC10303EB72
:100780000116431EB3FBF6F35B1C43F480431B05C9
:1007900049D092B301EBC10202EB0111401EB0FB44
:1007A000F1F0401CC0F30B0040F4804040F40040E6
:1007B0002168CA694CF6FF739A431043C861D4E9B3
:1007C000071001432068026822F0C0021143016053
:1007D000D4E9030101432068826848F2FF339A4359
:1007E00011438160D4E9050108432168CA6822F0F9
:1007F000FF021043C86001E00EE016E020680168C7
:1008000041F0010101602564202084F83D0025634A
:1008100084F83E50002070BD01EB4106431EB3FB3F
:10082000F6F35B1CB3E70120C2E701EB4101401E78
:10083000B0FBF1F0401CC0F30B00B7E7A08601004D
:1008400080841E0000093D0040420F002DE9FF4F4B
:1008500081B089460446FFF72FFF054694F83D0016
:100860004FF0000820287DD119230122504920464D
:10087000009501F025F9002874D194F83C00012876
:1008800070D0012084F83C0020680168C90703D1BA
:10089000016841F0010101602068016821F40061F4
:1008A0000160242084F83D00002626644148E0626F
:1008B0004FF0011B20272068016841F4807101601E
:1008C0000095002259462046049B01F0F9F850B1EA
:1008D00020680068C00502D54FF400702064032032
:1008E00005B0BDE8F08F216809F0FE000861FFF750
:1008F000E3FE2168054648694969C0F34000C1F339
:1009000080214FF0A00A0FE0FFF7D6FE411B0498AC
:10091000814200D808B984F83DA021684869496936
:10092000C0F34000C1F3802194F83D20A02A02D0FA
:1009300008B90029E8D084F83D7020684169C943AE
:10094000890716D4016841F400710160206841698B
:1009500080691923012216492046009501F0B0F85C
:10096000B8B900E021E084F83D7084F83C600020D4
:10097000B6E7016841F40071016021686FF480609E
:100980004861192301220A492046009501F098F890
:1009900008B10120A4E7039808F1010880458AD333
:1009A00084F83D7084F83C60F3E7022098E700008B
:1009B000020010000000FFFF2DE9F84F1F4690468F
:1009C0008A460446DDF82890FFF776FE054694F83F
:1009D0003D00202875D1192301226C49204600953D
:1009E00001F06EF80028F5D194F83C00012868D099
:1009F000012084F83C0020680168C90703D1016820
:100A000041F0010101602068016821F4006101608A
:100A1000222084F83D00102084F83E000026266441
:100A2000C4F824806785608D20855948E0622B4694
:100A30004A465146204600F059FF002878D1208DC3
:100A4000544F68B1012814D002282068016816D0DC
:100A500041F480610160206841698069009087E00D
:100A60002068416981690091016841F40071016069
:100A70007EE02068016821F480610160F0E721F4E4
:100A8000806101602068016841F40061E2E70328A9
:100A900048D801280AD0022814D04B4600223946F3
:100AA0002046009501F00CF8D8BB27E02A464946BD
:100AB000204601F084F8A0BB20680069616A0870D4
:100AC0004DE061E04B46002239462046009500F09B
:100AD000F7FF30BB2068016841F4007101602068B5
:100AE0000069616A0870606A401C6062218D491E5D
:100AF0002185618D491E618521682EE0206801688D
:100B000021F48061016020680069616A0870606A90
:100B1000401C6062208D401E2085608D401E6085D7
:100B2000D0E705E02A464946204601F048F810B1D2
:100B30000120BDE8F88F20680069616A0870606A6A
:100B4000401C6062218D491E2185618D491E618591
:100B500021684A69D24352070AD409690170606A60
:100B6000401C6062208D401E2085608D401E608587
:100B7000208D00288BD1202084F83D0084F83E6031
:100B800084F83C600020D4E70220D2E70200100085
:100B90000000FFFF040001002DE9F84F1F469046BA
:100BA0008A460446DDF82890FFF786FD054694F84E
:100BB0003D0020287FD1192301224049204600957D
:100BC00000F07EFF002876D194F83C00012872D016
:100BD000012084F83C0020680168C90703D101683E
:100BE00041F0010101602068016821F400610160A9
:100BF000212084F83D00102084F83E000026266461
:100C0000C4F824806785608D20852D48E0622B46DE
:100C10004A465146204600F0DFFE90B920684169FF
:100C20008069009036E02A464946204600F0FAFFE7
:100C300050B1206C042804D12068016841F400718F
:100C400001600120BDE8F88F606A216800780861C2
:100C5000606A401C6062618D491E6185218D491E5C
:100C600089B2218522685369DB435B070BD451B1FC
:100C700000781061606A401C6062608D401E608573
:100C8000208D401E20852A464946204600F0F2FE6F
:100C90000028CED1208D0028C5D154F83D0B016825
:100CA00041F400710160202004F81E09E6776677A0
:100CB0000020C7E7FFE70220C4E7000002001000A1
:100CC0000000FFFFF0B587B0044614216846FFF727
:100CD00074FB2768234CDFF888C0002221491223C7
:100CE0000325042620481034674518D10F6847F0C3
:100CF00002070F60096802AF01F002010591C021EF
:100D0000CDE9001387E864006946FFF7CFFB206850
:100D100040F400102060206800F400101CE0DFF8B0
:100D20004CC0674519D10F6847F002070F6009688A
:100D300002AF01F0020105914FF44061CDE90013CB
:100D400087E864006946FFF7B1FB206840F4800043
:100D50002060206800F48000059007B0F0BD00001E
:100D60000054004030380240000402400058004067
:100D70000248816802781144816070470C000020AD
:100D80000B4810B5016841F400710160016841F43D
:100D900080610160016841F480710160032000F00E
:100DA00061F80F2000F006F800F024F8002010BDD4
:100DB000003C024070B50D4D04464FF47A7128781E
:100DC000B1FBF0F00A490968B1FBF0F000F0FEFA5F
:100DD00048B9102C07D200222146501E00F022F8FC
:100DE00000206C6070BD012070BD00000C00002070
:100DF000180000200A4808B5016841F480410160EC
:100E0000006800F4804000900548001F016841F030
:100E100080510160006800F08050009008BD000023
:100E200044380240F0B40E4B1B680C46C3F3022357
:100E3000C3F10705042D00D90425191D072901D286
:100E4000002300E0DB1E012606FA05F1491E2140C1
:100E500099409E40761E16403143F0BC01F0F1B936
:100E60000CED00E0064900F0070208684FF6FF03AA
:100E7000184040EA0220034A10430860704700000F
:100E80000CED00E00000FA052DE9F0470E460500E4
:100E900065D0DFF81481D8F80000F7B200F0070041
:100EA000B04207D288F80070D8F8000000F00700C0
:100EB000B04254D128683D4C810712D5400703D574
:100EC000206840F4E05020602878000703D52068AF
:100ED00040F4604020602068A96820F0F0000843DA
:100EE00020602878C0072DD030496868083901286B
:100EF00012D0022813D0032811D0096889070029CD
:100F00002DDA216821F0030101432160FFF7D4FBB2
:100F1000814641F2883A0EE009688903EFE70968E3
:100F20008901ECE7FFF7C8FBA0EB0901514502D9A5
:100F30000320BDE8F0872068696800F00C00B0EB82
:100F4000810FEFD1D8F80010404601F00701B142FF
:100F500007D90770006800F00700B04201D00120F7
:100F6000E7E72878400705D52068E96820F4E050D5
:100F7000084320602878000706D52068296920F4F6
:100F8000604040EAC100206000F038F82168084A5B
:100F9000C1F30311515CC840064908600648006867
:100FA000FFF708FF0020C4E7003C02400838024079
:100FB000622800081800002010000020044805499D
:100FC00000680968044AC1F38221515CC840704737
:100FD000180000200838024072280008044805491B
:100FE00000680968044AC1F34231515CC840704747
:100FF000180000200838024072280008154810B573
:10100000006810F00C02144813D01449042A0FD0C1
:10101000082A0ED10F4C241F2268236802F03F02D9
:101020005B0207D52068C0F38810A0FB010106E031
:10103000084610BD2168C1F38811A1FB00010023FF
:10104000FFF712F92168C1F30141491C4900B0FBC7
:10105000F1F010BD083802400024F40040787D0112
:101060002DE9F84F04006ED02078DFF84C93C007CC
:10107000A9F104054AD009F104000168C1F3810116
:10108000012908D00068C0F3810002280AD1D9F8EC
:101090000000400206D52868800337D56068002824
:1010A000E1D033E06068B0F5803F10D0B0F5A02FFC
:1010B000286810D020F480302860286820F4802030
:1010C00028606068A8B1FFF7F7FA06460DE02868C7
:1010D00040F48030F4E740F480202860F7E700BF58
:1010E000FFF7EAFA801B642873D828688003F7D5D5
:1010F0000CE0FFF7E1FA064605E000BFFFF7DCFA77
:10110000801B6428F0D828688003F7D42078DFF8A3
:10111000AC8280074FF0000A3ED5A748001D016849
:1011200011F00C0F08D00068C0F3810002280BD129
:10113000D9F80000400207D42868800716D5E06877
:10114000012800D112E033E1E068B8B10120C8F80D
:101150000000FFF7B1FA064605E000BFFFF7ACFA62
:10116000801B0228C0D828688007F7D52868216925
:1011700020F0F80040EAC10028600DE0C8F800A0A7
:10118000FFF79AFA064604E0FFF796FA801B02285A
:101190001FD828688007F7D42078000722D5864F0B
:1011A00087486169703771B101210160FFF784FAE6
:1011B000064604E0FFF780FA801B022809D8386849
:1011C0008007F7D50EE0C0F800A0FFF775FA0646D5
:1011D00005E082E0FFF770FA801B02287DD83868AE
:1011E0008007F7D42078400768D5DFF8CCB1002716
:1011F0000BF13C0BDBF80000C0000BD4DBF8001057
:1012000041F08051CBF80010DBF80000012700F01E
:10121000805000906B4E3068C00510D4306840F4A8
:1012200080703060FFF748FA009005E0FFF744FA5D
:101230000099401A022850D83068C005F6D55E4E95
:10124000A0686C3601280FD00528306810D020F037
:1012500001003060306820F004003060A068B8B150
:10126000FFF72AFA00900FE0306840F00100F4E741
:1012700040F004003060F7E7FFF71EFA0099411ACA
:1012800041F28830814266D830688007F4D50EE09C
:10129000FFF712FA009007E0FFF70EFA0099411AE3
:1012A00041F28830814256D830688007F4D42FB19B
:1012B000DBF8001021F08051CBF80010A069C8B312
:1012C0003D49091D0968C1F3810102294AD002285C
:1012D000504607D0C8F8600000E03CE0FFF7ECF9AA
:1012E00004463BE04746C8F86000FFF7E5F90646CC
:1012F00005E000BFFFF7E0F9801B02282BD8286823
:101300008001F7D4D4E907010843A16A2E4A4908AD
:1013100002EB0141626A41EA8211084394F82C1001
:1013200040EA0161C9F8001001203866FFF7C4F9EE
:10133000044606E03EE000BFFFF7BEF9001B0228AE
:1013400009D828688001F7D534E000BFFFF7B4F969
:10135000001B022802D90320BDE8F88F286880010D
:10136000F4D427E00128F7D0D9F80000E26900F4AE
:10137000800191421CD1226A00F03F01914217D1B5
:1013800047F6C071626A0140B1EB821F10D1A26AB8
:101390004FF0FF3300F4403103EB5202B1EB024F48
:1013A00006D194F82C1000F07060B0EB016F01D002
:1013B0000120D1E70020CFE7043802400000474277
:1013C000800E4742007000400000FFFF10B5401E35
:1013D000B0F1807F01D3012010BD4FF0E0246061A7
:1013E0000F21601700F02DFF0020A0610720206171
:1013F000002010BD10B590F83C20012A22D0012217
:1014000080F83C20CA688C6822F4407222434C6801
:1014100022F4806222430C6822F4006222430C69A9
:1014200022F4805222434C6922F400522243C969BB
:10143000002322F480420A4301684A6480F83C3069
:10144000002010BD022010BD70B590F83C20012A8C
:1014500032D0012480F83C40022280F83D2003680D
:101460005A689D6822F070060A6832435A60134B2E
:1014700002689A4214D0B2F1804F11D0104B9A42B8
:101480000ED0104B9A420BD00F4B9A4208D00F4B04
:101490009A4205D00E4B9A4202D00E4B9A4204D18A
:1014A000496825F080031943916080F83D40002190
:1014B00080F83C10084670BD022070BD000001405D
:1014C0000004004000080040000C004000040140FF
:1014D000004001400018004010B5040003D094F80B
:1014E0003D0010B107E0012010BD002084F83C0051
:1014F000204600F01FF8022084F83D00211D2068DE
:1015000000F0BCFC012084F8460084F83E0084F81A
:101510003F0084F8400084F8410084F8420084F8D9
:10152000430084F8440084F8450084F83D0000201E
:1015300010BD000008B500680649884208D1064879
:10154000016841F001010160006800F001000090B5
:1015500008BD0000000001404438024070B5044658
:1015600090F83C000025012817D0012684F83C6043
:10157000022084F83D002068826822F0770222F47D
:101580007F4282600868502838D00DDC20284FD078
:1015900005DC90B3102811D14AE0022070BD30283C
:1015A00046D040280AD13BE060282FD070280DD0CB
:1015B000B0F5805F03D0B0F5005F12D0012584F84C
:1015C0003D60002084F83C00284670BDCB68D1E91E
:1015D0000121206800F0B6FC2068816841F07701A5
:1015E00009E0CB68D1E90121206800F0ABFC20685C
:1015F000816841F480418160E1E719E0CA68496887
:10160000206800F073FD5021206806E0CA68496830
:10161000206800F07CFD6021206800F09DFCCEE792
:10162000CA684968206800F061FD40212068F4E73D
:10163000226801461046F0E710B586B00446142132
:101640006846FEF7BAFE0E492068884216D10D485A
:101650000021026842F010020260006800F01000F1
:1016600005904FF4007000900220CDE901010120A7
:10167000CDE9031069460448FEF718FF06B010BD17
:1016800000000140303802400010024070B50446AE
:1016900090F83C0000260D4601280FD0012084F868
:1016A0003C006AB1042A1DD0082A2FD00C2A3FD052
:1016B0000126002084F83C00304670BD022070BD39
:1016C000206800F051FC2068816941F008018161C7
:1016D0002068816921F004018161206881692A699B
:1016E000114311E0206800F06FFC2068816941F42B
:1016F000006181612068816921F4806181612068D5
:1017000081692A6941EA02218161D2E7206800F0FB
:1017100091FC2068C16941F00801C1612068C1697C
:1017200021F00401C1612068C1692A69114311E0F7
:10173000206800F0B3FC2068C16941F40061C16118
:101740002068C16921F48061C1612068C1692A698A
:1017500041EA0221C161ACE710B5040003D094F85E
:101760003D0010B107E0012010BD002084F83C00CE
:10177000204600F01EF8022084F83D00211D20685C
:1017800000F07CFB012084F8460084F83E0084F8D9
:101790003F0084F8400084F8410084F8420084F857
:1017A000430084F8440084F8450084F83D0000209C
:1017B00010BD704770B5040004D094F83D000025BA
:1017C00010B106E0012070BD84F83C50204600F0C6
:1017D00023F8242084F83D002068C16821F40051DA
:1017E000C160204600F0A6FC2068016921F4904108
:1017F00001612068416921F02A0141612068C168C6
:1018000041F40051C1602564202084F83D0084F833
:101810003E00002070BD0000F0B587B004461421E2
:101820006846FEF7CAFD21481F4F266800221F495F
:101830001038022303240725BE4215D10E6846F452
:1018400000360E60096801F400310591016841F02D
:10185000010101600068694600F0010005900C205C
:10186000CDE90003124818E0124FBE421AD10E68AB
:1018700046F480260E60096801F480210591016814
:1018800041F0080101600068694600F00800059019
:101890004FF44070CDE90003074802AE86E83400FB
:1018A000FEF704FE07B0F0BD00440040403802409F
:1018B0000000024000480040000C0240FEE70168C2
:1018C0004A69D24352050FD46FF480624A61002105
:1018D00040F8301F202242738173026942F00402F3
:1018E0000261017301207047002070472DE9F84F15
:1018F0000446C06A1E4693460D4621680A6842F4B3
:1019000080620A60082807D0012805D010F5803FC2
:1019100002D0206B112804D12068016841F4807145
:1019200001604FF001195B460022494620460096AF
:1019300000F0C6F84FF4007840B120680068C00598
:1019400001D5C4F840800320BDE8F88F2069DFF896
:1019500084A0B0F5804F0FD00620216800EAD5178B
:1019600047F0F000086133465A460AF10601204666
:1019700000F0DAF858BB03E0E8B240F001001CE0E8
:101980002168E8B2086133465A465146204600F0C5
:10199000CBF8E0B92068416981690091016841F4A0
:1019A000807101605B46002249462046009600F0A7
:1019B00087F80028C1D147F0F1002168086133465B
:1019C0005A465146204600F0AFF80028BCD001200E
:1019D000BAE7000002000100F8B50446C06A1E46DE
:1019E0000D461746082807D0012805D010F5803F7E
:1019F00002D0206B122804D12068016841F4807164
:101A00000160134600224FF001112046009600F0BD
:101A100057F840B120680068C00502D54FF4007047
:101A200020640320F8BD2069B0F5804F0ED0062059
:101A3000216800EAD51040F0F000086133463A46CC
:101A40000B49204600F070F878B902E005F0FE007E
:101A500000E0E8B221680861054933463A46891F2B
:101A6000204600F061F80028DCD00120F8BD00001D
:101A70000800010070B516460D4604460DE02046EC
:101A8000FFF71DFF08B1012070BD681C05D0FEF7EF
:101A900013FE801BA84207D835B120684069C043B7
:101AA0004007ECD4002070BD002044F8300F202106
:101AB0006173A073216941F0200121612073E2E785
:101AC0002DE9F0471E4690460D460446C1F30747F0
:101AD000DDF8209008E0701C06D0FEF7EDFDA0EBCD
:101AE0000900B0420FD876B12068012F18D0806964
:101AF00025EA00000004000C14D000214145EAD082
:101B00000020BDE8F087002044F8300F20216173E9
:101B1000A073216941F02001216120730120F0E7C9
:101B20004069E5E70121E9E72DE9F0479A4691464A
:101B30000E46044600254FF02008C1F3074725E074
:101B400020684069C043400514D42068016841F40E
:101B50000071016021686FF480604861256384F83A
:101B60003D8084F83E50206C40F00400206484F8EE
:101B70003C501FE0B9F1FF3F08D0FEF79DFDA0EB00
:101B80000A0149450CD8B9F1000F09D02068012F8E
:101B900013D0806926EA00000004000C0BD0CFE7C8
:101BA00044F8305F84F80D80A573206940F0200070
:101BB000206125730120BDE8F0874069EAE72DE93F
:101BC000F041002590460E460446202717E0406964
:101BD000C043C0060CD454F8301B6FF010004861AD
:101BE00044F810596777A577206A2062257717E0B7
:101BF000FEF762FDA0EB0800B04208D83EB12068B5
:101C00004169C9434906E2D40020BDE8F08144F8A7
:101C1000305F6773A573206940F020002061257351
:101C20000120F2E770B516460D4604460DE0204649
:101C3000FFF745FE08B1012070BD681C05D0FEF716
:101C40003BFD801BA84207D835B120684069C043DE
:101C50000006ECD4002070BD002044F8300F202195
:101C60006173A073216941F0200121612073E2E7D3
:101C700070B586B014216846FEF79FFB1E4800240D
:101C8000016841F080010160016801F08001059167
:101C9000016841F001010160016801F00101059155
:101CA000016841F010010160016801F01001059127
:101CB000016841F002010160016801F00201059133
:101CC000016841F00801016000680C4E00F0080056
:101CD0004FF480550590002229463046FEF7E6FC79
:101CE00001200095CDE90104694630460394FEF7D2
:101CF000DDFB06B070BD000030380240000C024031
:101D000010B596B000240F9410941194129413946B
:101D10001C2108A81494FEF750FB20216846FEF70A
:101D20004CFB29482749016044F29F11C0E9011486
:101D300040F21971C0E9031444618461FFF7CCFBE0
:101D400008B172B6FEE74FF480500F900FA91E48FD
:101D5000FFF704FC08B172B6FEE71B48FFF7FCFC76
:101D600008B172B6FEE7139413A917481494FFF74D
:101D70006BFB08B172B6FEE76020CDE908040A9457
:101D80000B940C940D94002208A90F480E94FFF7B1
:101D90007DFC08B172B6FEE700944FF40050CDE927
:101DA0000440029401940394694607480794FFF79E
:101DB00021FB08B172B6FEE70348FFF73DFC16B001
:101DC00010BD000000000140C8020020FEE7FEE751
:101DD00070477047FEF7CCBF30B593B030216846EE
:101DE000FEF7EBFA14210CA8FEF7E7FA1D480025D0
:101DF000016841F080510160006800F0805011904E
:101E00001948016841F4804101600068022400F42F
:101E100080401190012003901020049000940694BB
:101E20000820CDE90750A820CDE9090404200B9033
:101E30006846FFF715F908B172B6FEE70CA90F2046
:101E400081E831004FF4A0500F904FF48050109073
:101E500005210CA8FFF718F8002801D072B6FEE79C
:101E600013B030BD403802400070004002480168A5
:101E700041F470010160704788ED00E0F0B5026840
:101E8000254C264D264E274F274B4FF0804CA04225
:101E900009D0604507D0A84205D0B04203D0B8426F
:101EA00001D0984204D122F0700E4A6842EA0E0234
:101EB000A0421BD0604519D0A84217D0B04215D01F
:101EC000B84213D0984211D0184DA8420ED0184DE8
:101ED000A8420BD0174DA84208D0174DA84205D0F4
:101EE000164DA84202D0164DA84203D122F44075E7
:101EF000CA682A434D6922F080022A4302608A6838
:101F0000C2620A688262A04201D0984201D1096986
:101F1000016301214161F0BD000001400004004067
:101F200000080040000C0040000401400040014057
:101F3000004401400048014000180040001C0040DF
:101F40000020004010B5846842EA032224F47F4454
:101F50000A432243826010BD826822F070020A4365
:101F600042F0070181607047F0B5026A22F0010279
:101F70000262036A42688469124E24F073050C6899
:101F80002C4323F002058B682B430D4DA84201D052
:101F9000B04205D123F00807CB683B4323F004038C
:101FA000A84201D0B04205D14D6922F440721543D8
:101FB0008A692A4342608461496841630362F0BDD3
:101FC0000000014000040140F0B5026A22F0100256
:101FD0000262026A436884690D6824F4E64444EAB4
:101FE00005248D6822F0200242EA05120F4D104EA2
:101FF000A84201D0B04206D1CF6822F0800242EA66
:10200000071222F04002A84201D0B04207D14D6928
:1020100023F4406343EA85038D6943EA8503436003
:102020008461496881630262F0BD000000000140E4
:1020300000040140F0B5026A22F480720262026A72
:102040004368C46922F4007224F073050C68124ED0
:102050002C438D6842EA05220E4DA84201D0B042C1
:1020600006D1CF6822F4006242EA072222F480629D
:10207000A84201D0B04207D14D6923F4405343EA4E
:1020800005138D6943EA05134360C4614968C16360
:102090000262F0BD000001400004014030B5026A58
:1020A00022F480520262046A4268C3690D6823F414
:1020B000E64343EA05238D6824F4005444EA0534DA
:1020C000084DA84202D0084DA84204D14D6922F41F
:1020D000804242EA85124260C36149680164046239
:1020E00030BD0000000001400004014010B5036A4B
:1020F000046A24F001040462846924F0F00444EAD0
:10210000021423F00A020A438461026210BD10B572
:10211000036A23F0100303628369046A23F47043A3
:1021200043EA023224F0A00343EA01118261016212
:1021300010BD000070B5044600680169E26821F432
:102140004051114301612169A068E2690843616956
:10215000114308432168CA6849F20C639A43024359
:10216000CA6020684169A26921F44071114341614C
:1021700031492068884202D03049884202D1FEF7B6
:102180002DFF01E0FEF71AFFE26900231921642503
:102190003226B2F5004F626828D0A0FB0101930FF0
:1021A0009200FEF761F80146B0FBF5F06FF01802FF
:1021B000504301EB800006EB0010B0FBF5F000F09F
:1021C000F002B1FBF5F002EB0012B1FBF5F06FF09D
:1021D0001803584301EB800006EB0010B0FBF5F04C
:1021E00000F00F0021681044886070BDA0FB010161
:1021F00092185B41FEF738F80146B0FBF5F002019A
:10220000B1FBF5F06FF01803584301EB800006EBCB
:10221000C000B0FBF5F000F0F80002EB4002B1FBAB
:10222000F5F0584301EB800006EBC000B0FBF5F081
:1022300000F00700D6E70000001001400014014044
:10224000FEE70907090E002804DB00F1E02080F812
:102250000014704700F00F0000F1E02080F8141D1A
:1022600070470021022000F08DB800002DE9F043F6
:1022700081462DED028BADF5217D9FED208B002455
:1022800080AEE846351904F18000C0B2012229462B
:1022900000F038F804F18100691CC0B2012200F09E
:1022A00031F86D78305D05F0070140EA012000F05B
:1022B0004FF953EC182B00F09BF941EC100B04EB99
:1022C000D470411008EBC107280787ED000B05D536
:1022D00051EC100B00F024F9C7E90001A41C802C7C
:1022E000D0DB4FF4007269464846FEF734F80DF52E
:1022F000217DBDEC028BBDE8F083000000000000F2
:102300000000D03FF7B582B0094C64250095164611
:102310000F46012302AA21786068FEF73DFC009574
:1023200033463A4621786068FEF746FB05B0F0BDBB
:10233000000000203F21012000F024B801460020C9
:1023400000F020B870B504463220FEF79DF80C4D21
:102350006C6000246423012221466868FEF776FA47
:1023600058B1641CE4B2FF2CF4D30020FFF7E6FF61
:10237000FFF7E0FFFFF775FF70BD2C70F5E7000079
:10238000000000201CB502238DF804000A200090F4
:1023900004488DF8051001AA01784068FEF7FCFB9F
:1023A0001CBD00000000002070B500242DED048B42
:1023B000A0B06E469FED168B9FED179B351904F16B
:1023C0008000C0B201222946FFF79CFF04F1810082
:1023D000691CC0B20122FFF795FF6978305D01F0FA
:1023E000070140EA012000F0B3F853EC182B00F08D
:1023F000FFF853EC192B00F0F9F904D2012020B0BA
:10240000BDEC048B70BDA41C802CD7DB0320F6E749
:10241000000000000000D03F000000000000444029
:10242000ADF5007DFEF7ACFCFFF7D6FCFFF720FC16
:1024300032483149324E00240160C0E901640D1474
:10244000C0E9034544618461C4610462FEF73AF95E
:1024500008B172B6FEE729482A4954300160C0E944
:102460000164C0E9034544618461C4610462FEF70C
:1024700029F908B172B6FEE7FFF742FC1F4822496E
:10248000F0304FF4E1350160C0E901540C26C4601E
:10249000C0E904468461C461FFF78CF908B172B6E3
:1024A000FEE71B4819490160C0E90154C460C0E956
:1024B00004468461C461FFF77DF908B172B6FEE796
:1024C0000E48FFF73FFF20B14FF480511148FEF74F
:1024D000E5F8114C4FF400756846FFF7C7FE2A4631
:1024E00069460E48FDF737FFFFF75EFF20700A20B0
:1024F000FDF7CAFFF0E70000005400402002002072
:10250000A086010000580040004400400048004000
:1025100054030020000C024008000020200000208E
:1025200081F00041704780F00040704721F0004189
:10253000704720F000407047491058BFC1F140413A
:102540005B1058BFC3F140438B42EFF300807047EC
:10255000B0FA80F310FA03F10AD0C3F11D0303F5BA
:1025600080634FEA41504FEA035202EBD12170479A
:102570004FF000007047000051EA030C17D41CF51F
:10258000801F58BFBCF5801F00F10680994218BF1C
:10259000704708BF9042704707D711F5801F58BF9A
:1025A00013F5801F19D499427047894270471CF572
:1025B000801F08D5BCF5801FF7D58B4218BF704728
:1025C00008BF824270474FF4001C1CEB410F38BF1C
:1025D0001CEB430F01D28B42704770B500F0B2F88C
:1025E000922449004FF000514FF08053FFF7A4BFF1
:1025F000DFF848C170B51CEA111E1EBF1CEA131596
:102600009EEA0C0F95EA0C0F00F06F8081EA03043C
:1026100023EA4C134EEAD47E21EA4C1141F4801196
:1026200043F48013AE44A1FB024CA0FB0365AEF162
:102630007F7E361955EB0C05A1FB034C4CF10003D2
:10264000A0FB021C16EB0C06654153F10003094286
:1026500018BF46F0010613F4007F0BD14FEA033197
:102660004FEA0530340341EA155140EA16506FF045
:1026700003020AE04FEAC3214FEAC520F40241EA0F
:10268000555140EA56506FF0020202EB2E4201EB28
:10269000025585EACE710AD05FEA440C18BF24F0D7
:1026A000004450F1000041F1000120EAD47040F2F2
:1026B000FE7C624500D270BDA84214BF4FF080443A
:1026C0004FF04044002E08BF0024BEF1806FA8BF29
:1026D000A1F1C041BDE8704080F282804FF000005F
:1026E00001F1C04101F0004170479EEA0C0F0CEA75
:1026F000131518BF95EA0C0F06D04FF0000081EAC1
:10270000030E0EF0004170BD00F01CF88900013E80
:1027100000F007B800F009B84FEA430C5FEA5C5CD0
:1027200008D081EA030100F05BB84FEA410C5FEA90
:102730005C5CF6D14FF00000014970470000FF07D4
:102740000000F87F0EF1020E2EF0030E5EF8046B0F
:10275000364205D4012A43EB030515F5001F12D8B4
:10276000012841EB010C1CF5001F0CD80ED14FEADB
:10277000D17C15F5001F0CEB4C0C0CF1020C08BFC2
:102780004CEBD37C04E04FF0080C01E04FEAD37C23
:102790000CEB4C0526FA05F606F00706B6F1040C1C
:1027A00006D20EEB860CBDE870404CF0010C604781
:1027B000DFE80CF0090B02024FF000414FF000007F
:1027C000A1F5002170BD19461046012851EB010406
:1027D00018BFD4F5001484BF002001F0004170BD83
:1027E0000808A0F500114FEA3101704753EA010CC7
:1027F00017D41CF5801F58BFBCF5801F00F1068060
:102800008B4218BF704708BF8242704707D713F545
:10281000801F58BF11F5801F19D48B4270479B420F
:1028200070471CF5801F08D5BCF5801FF7D599426D
:1028300018BF704708BF904270474FF4001C1CEB54
:10284000430F38BF1CEB410F01D2994270470FB4C0
:102850000CBC03BCFFF7C1BE4FF04070E1EE100AA4
:10286000704700000000000000000102030406079A
:102870000809000000000102030400009C28000871
:10288000000000201C000000C4010008B828000857
:102890001C000020DC090000E0010008000000002E
:1028A0000000000000000000010000001000000017
:0828B000000000000024F40008
:040000050800018965
:00000001FF
